{
  "_format": "hh-sol-artifact-1",
  "contractName": "TokenMaster",
  "sourceName": "contracts/TokenMaster.sol",
  "abi": [
    {
      "inputs": [
        {
          "internalType": "string",
          "name": "_name",
          "type": "string"
        },
        {
          "internalType": "string",
          "name": "_symbol",
          "type": "string"
        }
      ],
      "stateMutability": "nonpayable",
      "type": "constructor"
    },
    {
      "anonymous": false,
      "inputs": [
        {
          "indexed": true,
          "internalType": "address",
          "name": "owner",
          "type": "address"
        },
        {
          "indexed": true,
          "internalType": "address",
          "name": "approved",
          "type": "address"
        },
        {
          "indexed": true,
          "internalType": "uint256",
          "name": "tokenId",
          "type": "uint256"
        }
      ],
      "name": "Approval",
      "type": "event"
    },
    {
      "anonymous": false,
      "inputs": [
        {
          "indexed": true,
          "internalType": "address",
          "name": "owner",
          "type": "address"
        },
        {
          "indexed": true,
          "internalType": "address",
          "name": "operator",
          "type": "address"
        },
        {
          "indexed": false,
          "internalType": "bool",
          "name": "approved",
          "type": "bool"
        }
      ],
      "name": "ApprovalForAll",
      "type": "event"
    },
    {
      "anonymous": false,
      "inputs": [
        {
          "indexed": true,
          "internalType": "address",
          "name": "from",
          "type": "address"
        },
        {
          "indexed": true,
          "internalType": "address",
          "name": "to",
          "type": "address"
        },
        {
          "indexed": true,
          "internalType": "uint256",
          "name": "tokenId",
          "type": "uint256"
        }
      ],
      "name": "Transfer",
      "type": "event"
    },
    {
      "inputs": [
        {
          "internalType": "address",
          "name": "to",
          "type": "address"
        },
        {
          "internalType": "uint256",
          "name": "tokenId",
          "type": "uint256"
        }
      ],
      "name": "approve",
      "outputs": [],
      "stateMutability": "nonpayable",
      "type": "function"
    },
    {
      "inputs": [
        {
          "internalType": "address",
          "name": "owner",
          "type": "address"
        }
      ],
      "name": "balanceOf",
      "outputs": [
        {
          "internalType": "uint256",
          "name": "",
          "type": "uint256"
        }
      ],
      "stateMutability": "view",
      "type": "function"
    },
    {
      "inputs": [
        {
          "internalType": "uint256",
          "name": "tokenId",
          "type": "uint256"
        }
      ],
      "name": "getApproved",
      "outputs": [
        {
          "internalType": "address",
          "name": "",
          "type": "address"
        }
      ],
      "stateMutability": "view",
      "type": "function"
    },
    {
      "inputs": [
        {
          "internalType": "uint256",
          "name": "_id",
          "type": "uint256"
        }
      ],
      "name": "getOccasion",
      "outputs": [
        {
          "components": [
            {
              "internalType": "uint256",
              "name": "id",
              "type": "uint256"
            },
            {
              "internalType": "string",
              "name": "name",
              "type": "string"
            },
            {
              "internalType": "uint256",
              "name": "cost",
              "type": "uint256"
            },
            {
              "internalType": "uint256",
              "name": "tickets",
              "type": "uint256"
            },
            {
              "internalType": "uint256",
              "name": "maxTickets",
              "type": "uint256"
            },
            {
              "internalType": "string",
              "name": "date",
              "type": "string"
            },
            {
              "internalType": "string",
              "name": "time",
              "type": "string"
            },
            {
              "internalType": "string",
              "name": "location",
              "type": "string"
            }
          ],
          "internalType": "struct TokenMaster.Occasion",
          "name": "",
          "type": "tuple"
        }
      ],
      "stateMutability": "view",
      "type": "function"
    },
    {
      "inputs": [
        {
          "internalType": "uint256",
          "name": "_id",
          "type": "uint256"
        }
      ],
      "name": "getSeatsTaken",
      "outputs": [
        {
          "internalType": "uint256[]",
          "name": "",
          "type": "uint256[]"
        }
      ],
      "stateMutability": "view",
      "type": "function"
    },
    {
      "inputs": [
        {
          "internalType": "address",
          "name": "user",
          "type": "address"
        },
        {
          "internalType": "uint256",
          "name": "_ticketId",
          "type": "uint256"
        }
      ],
      "name": "getTicketDetails",
      "outputs": [
        {
          "internalType": "uint256",
          "name": "",
          "type": "uint256"
        },
        {
          "internalType": "uint256",
          "name": "",
          "type": "uint256"
        },
        {
          "internalType": "uint256",
          "name": "",
          "type": "uint256"
        }
      ],
      "stateMutability": "view",
      "type": "function"
    },
    {
      "inputs": [
        {
          "internalType": "address",
          "name": "user",
          "type": "address"
        }
      ],
      "name": "getUserTickets",
      "outputs": [
        {
          "components": [
            {
              "internalType": "uint256",
              "name": "id",
              "type": "uint256"
            },
            {
              "internalType": "uint256",
              "name": "occasionId",
              "type": "uint256"
            },
            {
              "internalType": "uint256",
              "name": "seat",
              "type": "uint256"
            }
          ],
          "internalType": "struct TokenMaster.Ticket[]",
          "name": "",
          "type": "tuple[]"
        }
      ],
      "stateMutability": "view",
      "type": "function"
    },
    {
      "inputs": [
        {
          "internalType": "uint256",
          "name": "",
          "type": "uint256"
        },
        {
          "internalType": "address",
          "name": "",
          "type": "address"
        }
      ],
      "name": "hasBought",
      "outputs": [
        {
          "internalType": "bool",
          "name": "",
          "type": "bool"
        }
      ],
      "stateMutability": "view",
      "type": "function"
    },
    {
      "inputs": [
        {
          "internalType": "address",
          "name": "owner",
          "type": "address"
        },
        {
          "internalType": "address",
          "name": "operator",
          "type": "address"
        }
      ],
      "name": "isApprovedForAll",
      "outputs": [
        {
          "internalType": "bool",
          "name": "",
          "type": "bool"
        }
      ],
      "stateMutability": "view",
      "type": "function"
    },
    {
      "inputs": [
        {
          "internalType": "string",
          "name": "_name",
          "type": "string"
        },
        {
          "internalType": "uint256",
          "name": "_cost",
          "type": "uint256"
        },
        {
          "internalType": "uint256",
          "name": "_maxTickets",
          "type": "uint256"
        },
        {
          "internalType": "string",
          "name": "_date",
          "type": "string"
        },
        {
          "internalType": "string",
          "name": "_time",
          "type": "string"
        },
        {
          "internalType": "string",
          "name": "_location",
          "type": "string"
        }
      ],
      "name": "list",
      "outputs": [],
      "stateMutability": "nonpayable",
      "type": "function"
    },
    {
      "inputs": [
        {
          "internalType": "uint256",
          "name": "_id",
          "type": "uint256"
        },
        {
          "internalType": "uint256",
          "name": "_seat",
          "type": "uint256"
        }
      ],
      "name": "mint",
      "outputs": [],
      "stateMutability": "payable",
      "type": "function"
    },
    {
      "inputs": [],
      "name": "name",
      "outputs": [
        {
          "internalType": "string",
          "name": "",
          "type": "string"
        }
      ],
      "stateMutability": "view",
      "type": "function"
    },
    {
      "inputs": [],
      "name": "owner",
      "outputs": [
        {
          "internalType": "address",
          "name": "",
          "type": "address"
        }
      ],
      "stateMutability": "view",
      "type": "function"
    },
    {
      "inputs": [
        {
          "internalType": "uint256",
          "name": "tokenId",
          "type": "uint256"
        }
      ],
      "name": "ownerOf",
      "outputs": [
        {
          "internalType": "address",
          "name": "",
          "type": "address"
        }
      ],
      "stateMutability": "view",
      "type": "function"
    },
    {
      "inputs": [
        {
          "internalType": "address",
          "name": "from",
          "type": "address"
        },
        {
          "internalType": "address",
          "name": "to",
          "type": "address"
        },
        {
          "internalType": "uint256",
          "name": "tokenId",
          "type": "uint256"
        }
      ],
      "name": "safeTransferFrom",
      "outputs": [],
      "stateMutability": "nonpayable",
      "type": "function"
    },
    {
      "inputs": [
        {
          "internalType": "address",
          "name": "from",
          "type": "address"
        },
        {
          "internalType": "address",
          "name": "to",
          "type": "address"
        },
        {
          "internalType": "uint256",
          "name": "tokenId",
          "type": "uint256"
        },
        {
          "internalType": "bytes",
          "name": "data",
          "type": "bytes"
        }
      ],
      "name": "safeTransferFrom",
      "outputs": [],
      "stateMutability": "nonpayable",
      "type": "function"
    },
    {
      "inputs": [
        {
          "internalType": "uint256",
          "name": "",
          "type": "uint256"
        },
        {
          "internalType": "uint256",
          "name": "",
          "type": "uint256"
        }
      ],
      "name": "seatTaken",
      "outputs": [
        {
          "internalType": "address",
          "name": "",
          "type": "address"
        }
      ],
      "stateMutability": "view",
      "type": "function"
    },
    {
      "inputs": [
        {
          "internalType": "address",
          "name": "operator",
          "type": "address"
        },
        {
          "internalType": "bool",
          "name": "approved",
          "type": "bool"
        }
      ],
      "name": "setApprovalForAll",
      "outputs": [],
      "stateMutability": "nonpayable",
      "type": "function"
    },
    {
      "inputs": [
        {
          "internalType": "bytes4",
          "name": "interfaceId",
          "type": "bytes4"
        }
      ],
      "name": "supportsInterface",
      "outputs": [
        {
          "internalType": "bool",
          "name": "",
          "type": "bool"
        }
      ],
      "stateMutability": "view",
      "type": "function"
    },
    {
      "inputs": [],
      "name": "symbol",
      "outputs": [
        {
          "internalType": "string",
          "name": "",
          "type": "string"
        }
      ],
      "stateMutability": "view",
      "type": "function"
    },
    {
      "inputs": [
        {
          "internalType": "uint256",
          "name": "tokenId",
          "type": "uint256"
        }
      ],
      "name": "tokenURI",
      "outputs": [
        {
          "internalType": "string",
          "name": "",
          "type": "string"
        }
      ],
      "stateMutability": "view",
      "type": "function"
    },
    {
      "inputs": [],
      "name": "totalOccasions",
      "outputs": [
        {
          "internalType": "uint256",
          "name": "",
          "type": "uint256"
        }
      ],
      "stateMutability": "view",
      "type": "function"
    },
    {
      "inputs": [],
      "name": "totalSupply",
      "outputs": [
        {
          "internalType": "uint256",
          "name": "",
          "type": "uint256"
        }
      ],
      "stateMutability": "view",
      "type": "function"
    },
    {
      "inputs": [
        {
          "internalType": "address",
          "name": "from",
          "type": "address"
        },
        {
          "internalType": "address",
          "name": "to",
          "type": "address"
        },
        {
          "internalType": "uint256",
          "name": "tokenId",
          "type": "uint256"
        }
      ],
      "name": "transferFrom",
      "outputs": [],
      "stateMutability": "nonpayable",
      "type": "function"
    },
    {
      "inputs": [
        {
          "internalType": "address",
          "name": "",
          "type": "address"
        },
        {
          "internalType": "uint256",
          "name": "",
          "type": "uint256"
        }
      ],
      "name": "userTickets",
      "outputs": [
        {
          "internalType": "uint256",
          "name": "id",
          "type": "uint256"
        },
        {
          "internalType": "uint256",
          "name": "occasionId",
          "type": "uint256"
        },
        {
          "internalType": "uint256",
          "name": "seat",
          "type": "uint256"
        }
      ],
      "stateMutability": "view",
      "type": "function"
    },
    {
      "inputs": [],
      "name": "withdraw",
      "outputs": [],
      "stateMutability": "nonpayable",
      "type": "function"
    }
  ],
  "bytecode": "0x60806040523480156200001157600080fd5b50604051620043e4380380620043e483398181016040528101906200003791906200023b565b818181600090816200004a91906200050b565b5080600190816200005c91906200050b565b50505033600660006101000a81548173ffffffffffffffffffffffffffffffffffffffff021916908373ffffffffffffffffffffffffffffffffffffffff1602179055505050620005f2565b6000604051905090565b600080fd5b600080fd5b600080fd5b600080fd5b6000601f19601f8301169050919050565b7f4e487b7100000000000000000000000000000000000000000000000000000000600052604160045260246000fd5b6200011182620000c6565b810181811067ffffffffffffffff82111715620001335762000132620000d7565b5b80604052505050565b600062000148620000a8565b905062000156828262000106565b919050565b600067ffffffffffffffff821115620001795762000178620000d7565b5b6200018482620000c6565b9050602081019050919050565b60005b83811015620001b157808201518184015260208101905062000194565b60008484015250505050565b6000620001d4620001ce846200015b565b6200013c565b905082815260208101848484011115620001f357620001f2620000c1565b5b6200020084828562000191565b509392505050565b600082601f83011262000220576200021f620000bc565b5b815162000232848260208601620001bd565b91505092915050565b60008060408385031215620002555762000254620000b2565b5b600083015167ffffffffffffffff811115620002765762000275620000b7565b5b620002848582860162000208565b925050602083015167ffffffffffffffff811115620002a857620002a7620000b7565b5b620002b68582860162000208565b9150509250929050565b600081519050919050565b7f4e487b7100000000000000000000000000000000000000000000000000000000600052602260045260246000fd5b600060028204905060018216806200031357607f821691505b602082108103620003295762000328620002cb565b5b50919050565b60008190508160005260206000209050919050565b60006020601f8301049050919050565b600082821b905092915050565b600060088302620003937fffffffffffffffffffffffffffffffffffffffffffffffffffffffffffffffff8262000354565b6200039f868362000354565b95508019841693508086168417925050509392505050565b6000819050919050565b6000819050919050565b6000620003ec620003e6620003e084620003b7565b620003c1565b620003b7565b9050919050565b6000819050919050565b6200040883620003cb565b620004206200041782620003f3565b84845462000361565b825550505050565b600090565b6200043762000428565b62000444818484620003fd565b505050565b5b818110156200046c57620004606000826200042d565b6001810190506200044a565b5050565b601f821115620004bb5762000485816200032f565b620004908462000344565b81016020851015620004a0578190505b620004b8620004af8562000344565b83018262000449565b50505b505050565b600082821c905092915050565b6000620004e060001984600802620004c0565b1980831691505092915050565b6000620004fb8383620004cd565b9150826002028217905092915050565b6200051682620002c0565b67ffffffffffffffff811115620005325762000531620000d7565b5b6200053e8254620002fa565b6200054b82828562000470565b600060209050601f8311600181146200058357600084156200056e578287015190505b6200057a8582620004ed565b865550620005ea565b601f19841662000593866200032f565b60005b82811015620005bd5784890151825560018201915060208501945060208101905062000596565b86831015620005dd5784890151620005d9601f891682620004cd565b8355505b6001600288020188555050505b505050505050565b613de280620006026000396000f3fe6080604052600436106101815760003560e01c806374bc8656116100d1578063a22cb4651161008a578063c87b56dd11610064578063c87b56dd146105ab578063cf260baf146105e8578063e985e9c514610627578063ed9a2ea31461066457610181565b8063a22cb4651461051c578063af296da114610545578063b88d4fde1461058257610181565b806374bc8656146103f85780638da5cb5b14610435578063953865c11461046057806395d89b411461048b5780639a382f0f146104b65780639cb04aef146104df57610181565b806318160ddd1161013e5780633ccfd60b116101185780633ccfd60b1461033e57806342842e0e146103555780636352211e1461037e57806370a08231146103bb57610181565b806318160ddd146102ce5780631b2ef1ca146102f957806323b872dd1461031557610181565b806301ffc9a7146101865780630484a22f146101c357806306fdde0314610200578063081812fc1461022b578063095ea7b3146102685780630ef7ec7414610291575b600080fd5b34801561019257600080fd5b506101ad60048036038101906101a8919061275b565b6106a3565b6040516101ba91906127a3565b60405180910390f35b3480156101cf57600080fd5b506101ea60048036038101906101e5919061281c565b610785565b6040516101f79190612953565b60405180910390f35b34801561020c57600080fd5b506102156108bb565b6040516102229190612a05565b60405180910390f35b34801561023757600080fd5b50610252600480360381019061024d9190612a53565b61094d565b60405161025f9190612a8f565b60405180910390f35b34801561027457600080fd5b5061028f600480360381019061028a9190612aaa565b610993565b005b34801561029d57600080fd5b506102b860048036038101906102b39190612a53565b610aaa565b6040516102c59190612b99565b60405180910390f35b3480156102da57600080fd5b506102e3610b15565b6040516102f09190612bca565b60405180910390f35b610313600480360381019061030e9190612be5565b610b1b565b005b34801561032157600080fd5b5061033c60048036038101906103379190612c25565b610e01565b005b34801561034a57600080fd5b50610353610e61565b005b34801561036157600080fd5b5061037c60048036038101906103779190612c25565b610f56565b005b34801561038a57600080fd5b506103a560048036038101906103a09190612a53565b610f76565b6040516103b29190612a8f565b60405180910390f35b3480156103c757600080fd5b506103e260048036038101906103dd919061281c565b610ffc565b6040516103ef9190612bca565b60405180910390f35b34801561040457600080fd5b5061041f600480360381019061041a9190612a53565b6110b3565b60405161042c9190612d87565b60405180910390f35b34801561044157600080fd5b5061044a611351565b6040516104579190612a8f565b60405180910390f35b34801561046c57600080fd5b50610475611377565b6040516104829190612bca565b60405180910390f35b34801561049757600080fd5b506104a061137d565b6040516104ad9190612a05565b60405180910390f35b3480156104c257600080fd5b506104dd60048036038101906104d89190612ede565b61140f565b005b3480156104eb57600080fd5b5061050660048036038101906105019190612fdb565b61155d565b60405161051391906127a3565b60405180910390f35b34801561052857600080fd5b50610543600480360381019061053e9190613047565b61158c565b005b34801561055157600080fd5b5061056c60048036038101906105679190612be5565b6115a2565b6040516105799190612a8f565b60405180910390f35b34801561058e57600080fd5b506105a960048036038101906105a49190613128565b6115e4565b005b3480156105b757600080fd5b506105d260048036038101906105cd9190612a53565b611646565b6040516105df9190612a05565b60405180910390f35b3480156105f457600080fd5b5061060f600480360381019061060a9190612aaa565b6116ae565b60405161061e939291906131ab565b60405180910390f35b34801561063357600080fd5b5061064e600480360381019061064991906131e2565b6116f5565b60405161065b91906127a3565b60405180910390f35b34801561067057600080fd5b5061068b60048036038101906106869190612aaa565b611789565b60405161069a939291906131ab565b60405180910390f35b60007f80ac58cd000000000000000000000000000000000000000000000000000000007bffffffffffffffffffffffffffffffffffffffffffffffffffffffff1916827bffffffffffffffffffffffffffffffffffffffffffffffffffffffff1916148061076e57507f5b5e139f000000000000000000000000000000000000000000000000000000007bffffffffffffffffffffffffffffffffffffffffffffffffffffffff1916827bffffffffffffffffffffffffffffffffffffffffffffffffffffffff1916145b8061077e575061077d826118bb565b5b9050919050565b60606000600d60008473ffffffffffffffffffffffffffffffffffffffff1673ffffffffffffffffffffffffffffffffffffffff16815260200190815260200160002090506000818054905067ffffffffffffffff8111156107ea576107e9612db3565b5b60405190808252806020026020018201604052801561082357816020015b610810612689565b8152602001906001900390816108085790505b50905060005b82805490508110156108b05782818154811061084857610847613222565b5b9060005260206000209060030201604051806060016040529081600082015481526020016001820154815260200160028201548152505082828151811061089257610891613222565b5b602002602001018190525080806108a890613280565b915050610829565b508092505050919050565b6060600080546108ca906132f7565b80601f01602080910402602001604051908101604052809291908181526020018280546108f6906132f7565b80156109435780601f1061091857610100808354040283529160200191610943565b820191906000526020600020905b81548152906001019060200180831161092657829003601f168201915b5050505050905090565b600061095882611925565b6004600083815260200190815260200160002060009054906101000a900473ffffffffffffffffffffffffffffffffffffffff169050919050565b600061099e82610f76565b90508073ffffffffffffffffffffffffffffffffffffffff168373ffffffffffffffffffffffffffffffffffffffff1603610a0e576040517f08c379a0000000000000000000000000000000000000000000000000000000008152600401610a059061339a565b60405180910390fd5b8073ffffffffffffffffffffffffffffffffffffffff16610a2d611970565b73ffffffffffffffffffffffffffffffffffffffff161480610a5c5750610a5b81610a56611970565b6116f5565b5b610a9b576040517f08c379a0000000000000000000000000000000000000000000000000000000008152600401610a929061342c565b60405180910390fd5b610aa58383611978565b505050565b6060600c6000838152602001908152602001600020805480602002602001604051908101604052809291908181526020018280548015610b0957602002820191906000526020600020905b815481526020019060010190808311610af5575b50505050509050919050565b60085481565b60008203610b2857600080fd5b600754821115610b3757600080fd5b6009600083815260200190815260200160002060020154341015610b5a57600080fd5b600073ffffffffffffffffffffffffffffffffffffffff16600b6000848152602001908152602001600020600083815260200190815260200160002060009054906101000a900473ffffffffffffffffffffffffffffffffffffffff1673ffffffffffffffffffffffffffffffffffffffff1614610bd757600080fd5b6009600083815260200190815260200160002060040154811115610bfa57600080fd5b6001600960008481526020019081526020016000206003016000828254610c21919061344c565b925050819055506001600a600084815260200190815260200160002060003373ffffffffffffffffffffffffffffffffffffffff1673ffffffffffffffffffffffffffffffffffffffff16815260200190815260200160002060006101000a81548160ff02191690831515021790555033600b6000848152602001908152602001600020600083815260200190815260200160002060006101000a81548173ffffffffffffffffffffffffffffffffffffffff021916908373ffffffffffffffffffffffffffffffffffffffff160217905550600c600083815260200190815260200160002081908060018154018082558091505060019003906000526020600020016000909190919091505560086000815480929190610d4190613280565b9190505550600060405180606001604052806008548152602001848152602001838152509050600d60003373ffffffffffffffffffffffffffffffffffffffff1673ffffffffffffffffffffffffffffffffffffffff1681526020019081526020016000208190806001815401808255809150506001900390600052602060002090600302016000909190919091506000820151816000015560208201518160010155604082015181600201555050610dfc33600854611a31565b505050565b610e12610e0c611970565b82611a4f565b610e51576040517f08c379a0000000000000000000000000000000000000000000000000000000008152600401610e48906134f2565b60405180910390fd5b610e5c838383611ae4565b505050565b600660009054906101000a900473ffffffffffffffffffffffffffffffffffffffff1673ffffffffffffffffffffffffffffffffffffffff163373ffffffffffffffffffffffffffffffffffffffff1614610ebb57600080fd5b6000600660009054906101000a900473ffffffffffffffffffffffffffffffffffffffff1673ffffffffffffffffffffffffffffffffffffffff1647604051610f0390613543565b60006040518083038185875af1925050503d8060008114610f40576040519150601f19603f3d011682016040523d82523d6000602084013e610f45565b606091505b5050905080610f5357600080fd5b50565b610f71838383604051806020016040528060008152506115e4565b505050565b600080610f8283611ddd565b9050600073ffffffffffffffffffffffffffffffffffffffff168173ffffffffffffffffffffffffffffffffffffffff1603610ff3576040517f08c379a0000000000000000000000000000000000000000000000000000000008152600401610fea906135a4565b60405180910390fd5b80915050919050565b60008073ffffffffffffffffffffffffffffffffffffffff168273ffffffffffffffffffffffffffffffffffffffff160361106c576040517f08c379a000000000000000000000000000000000000000000000000000000000815260040161106390613636565b60405180910390fd5b600360008373ffffffffffffffffffffffffffffffffffffffff1673ffffffffffffffffffffffffffffffffffffffff168152602001908152602001600020549050919050565b6110bb6126aa565b6009600083815260200190815260200160002060405180610100016040529081600082015481526020016001820180546110f4906132f7565b80601f0160208091040260200160405190810160405280929190818152602001828054611120906132f7565b801561116d5780601f106111425761010080835404028352916020019161116d565b820191906000526020600020905b81548152906001019060200180831161115057829003601f168201915b505050505081526020016002820154815260200160038201548152602001600482015481526020016005820180546111a4906132f7565b80601f01602080910402602001604051908101604052809291908181526020018280546111d0906132f7565b801561121d5780601f106111f25761010080835404028352916020019161121d565b820191906000526020600020905b81548152906001019060200180831161120057829003601f168201915b50505050508152602001600682018054611236906132f7565b80601f0160208091040260200160405190810160405280929190818152602001828054611262906132f7565b80156112af5780601f10611284576101008083540402835291602001916112af565b820191906000526020600020905b81548152906001019060200180831161129257829003601f168201915b505050505081526020016007820180546112c8906132f7565b80601f01602080910402602001604051908101604052809291908181526020018280546112f4906132f7565b80156113415780601f1061131657610100808354040283529160200191611341565b820191906000526020600020905b81548152906001019060200180831161132457829003601f168201915b5050505050815250509050919050565b600660009054906101000a900473ffffffffffffffffffffffffffffffffffffffff1681565b60075481565b60606001805461138c906132f7565b80601f01602080910402602001604051908101604052809291908181526020018280546113b8906132f7565b80156114055780601f106113da57610100808354040283529160200191611405565b820191906000526020600020905b8154815290600101906020018083116113e857829003601f168201915b5050505050905090565b600660009054906101000a900473ffffffffffffffffffffffffffffffffffffffff1673ffffffffffffffffffffffffffffffffffffffff163373ffffffffffffffffffffffffffffffffffffffff161461146957600080fd5b6007600081548092919061147c90613280565b91905055506040518061010001604052806007548152602001878152602001868152602001858152602001858152602001848152602001838152602001828152506009600060075481526020019081526020016000206000820151816000015560208201518160010190816114f19190613802565b5060408201518160020155606082015181600301556080820151816004015560a08201518160050190816115259190613802565b5060c082015181600601908161153b9190613802565b5060e08201518160070190816115519190613802565b50905050505050505050565b600a6020528160005260406000206020528060005260406000206000915091509054906101000a900460ff1681565b61159e611597611970565b8383611e1a565b5050565b600b6020528160005260406000206020528060005260406000206000915091509054906101000a900473ffffffffffffffffffffffffffffffffffffffff1681565b6115f56115ef611970565b83611a4f565b611634576040517f08c379a000000000000000000000000000000000000000000000000000000000815260040161162b906134f2565b60405180910390fd5b61164084848484611f86565b50505050565b606061165182611925565b600061165b611fe2565b9050600081511161167b57604051806020016040528060008152506116a6565b8061168584611ff9565b604051602001611696929190613910565b6040516020818303038152906040525b915050919050565b600d60205281600052604060002081815481106116ca57600080fd5b9060005260206000209060030201600091509150508060000154908060010154908060020154905083565b6000600560008473ffffffffffffffffffffffffffffffffffffffff1673ffffffffffffffffffffffffffffffffffffffff16815260200190815260200160002060008373ffffffffffffffffffffffffffffffffffffffff1673ffffffffffffffffffffffffffffffffffffffff16815260200190815260200160002060009054906101000a900460ff16905092915050565b6000806000600d60008673ffffffffffffffffffffffffffffffffffffffff1673ffffffffffffffffffffffffffffffffffffffff168152602001908152602001600020805490508410611812576040517f08c379a000000000000000000000000000000000000000000000000000000000815260040161180990613980565b60405180910390fd5b6000600d60008773ffffffffffffffffffffffffffffffffffffffff1673ffffffffffffffffffffffffffffffffffffffff168152602001908152602001600020858154811061186557611864613222565b5b906000526020600020906003020160405180606001604052908160008201548152602001600182015481526020016002820154815250509050806000015181602001518260400151935093509350509250925092565b60007f01ffc9a7000000000000000000000000000000000000000000000000000000007bffffffffffffffffffffffffffffffffffffffffffffffffffffffff1916827bffffffffffffffffffffffffffffffffffffffffffffffffffffffff1916149050919050565b61192e816120c7565b61196d576040517f08c379a0000000000000000000000000000000000000000000000000000000008152600401611964906135a4565b60405180910390fd5b50565b600033905090565b816004600083815260200190815260200160002060006101000a81548173ffffffffffffffffffffffffffffffffffffffff021916908373ffffffffffffffffffffffffffffffffffffffff160217905550808273ffffffffffffffffffffffffffffffffffffffff166119eb83610f76565b73ffffffffffffffffffffffffffffffffffffffff167f8c5be1e5ebec7d5bd14f71427d1e84f3dd0314c0f7b2291e5b200ac8c7c3b92560405160405180910390a45050565b611a4b828260405180602001604052806000815250612108565b5050565b600080611a5b83610f76565b90508073ffffffffffffffffffffffffffffffffffffffff168473ffffffffffffffffffffffffffffffffffffffff161480611a9d5750611a9c81856116f5565b5b80611adb57508373ffffffffffffffffffffffffffffffffffffffff16611ac38461094d565b73ffffffffffffffffffffffffffffffffffffffff16145b91505092915050565b8273ffffffffffffffffffffffffffffffffffffffff16611b0482610f76565b73ffffffffffffffffffffffffffffffffffffffff1614611b5a576040517f08c379a0000000000000000000000000000000000000000000000000000000008152600401611b5190613a12565b60405180910390fd5b600073ffffffffffffffffffffffffffffffffffffffff168273ffffffffffffffffffffffffffffffffffffffff1603611bc9576040517f08c379a0000000000000000000000000000000000000000000000000000000008152600401611bc090613aa4565b60405180910390fd5b611bd68383836001612163565b8273ffffffffffffffffffffffffffffffffffffffff16611bf682610f76565b73ffffffffffffffffffffffffffffffffffffffff1614611c4c576040517f08c379a0000000000000000000000000000000000000000000000000000000008152600401611c4390613a12565b60405180910390fd5b6004600082815260200190815260200160002060006101000a81549073ffffffffffffffffffffffffffffffffffffffff02191690556001600360008573ffffffffffffffffffffffffffffffffffffffff1673ffffffffffffffffffffffffffffffffffffffff168152602001908152602001600020600082825403925050819055506001600360008473ffffffffffffffffffffffffffffffffffffffff1673ffffffffffffffffffffffffffffffffffffffff16815260200190815260200160002060008282540192505081905550816002600083815260200190815260200160002060006101000a81548173ffffffffffffffffffffffffffffffffffffffff021916908373ffffffffffffffffffffffffffffffffffffffff160217905550808273ffffffffffffffffffffffffffffffffffffffff168473ffffffffffffffffffffffffffffffffffffffff167fddf252ad1be2c89b69c2b068fc378daa952ba7f163c4a11628f55a4df523b3ef60405160405180910390a4611dd88383836001612169565b505050565b60006002600083815260200190815260200160002060009054906101000a900473ffffffffffffffffffffffffffffffffffffffff169050919050565b8173ffffffffffffffffffffffffffffffffffffffff168373ffffffffffffffffffffffffffffffffffffffff1603611e88576040517f08c379a0000000000000000000000000000000000000000000000000000000008152600401611e7f90613b10565b60405180910390fd5b80600560008573ffffffffffffffffffffffffffffffffffffffff1673ffffffffffffffffffffffffffffffffffffffff16815260200190815260200160002060008473ffffffffffffffffffffffffffffffffffffffff1673ffffffffffffffffffffffffffffffffffffffff16815260200190815260200160002060006101000a81548160ff0219169083151502179055508173ffffffffffffffffffffffffffffffffffffffff168373ffffffffffffffffffffffffffffffffffffffff167f17307eab39ab6107e8899845ad3d59bd9653f200f220920489ca2b5937696c3183604051611f7991906127a3565b60405180910390a3505050565b611f91848484611ae4565b611f9d8484848461216f565b611fdc576040517f08c379a0000000000000000000000000000000000000000000000000000000008152600401611fd390613ba2565b60405180910390fd5b50505050565b606060405180602001604052806000815250905090565b606060006001612008846122f6565b01905060008167ffffffffffffffff81111561202757612026612db3565b5b6040519080825280601f01601f1916602001820160405280156120595781602001600182028036833780820191505090505b509050600082602001820190505b6001156120bc578080600190039150507f3031323334353637383961626364656600000000000000000000000000000000600a86061a8153600a85816120b0576120af613bc2565b5b04945060008503612067575b819350505050919050565b60008073ffffffffffffffffffffffffffffffffffffffff166120e983611ddd565b73ffffffffffffffffffffffffffffffffffffffff1614159050919050565b6121128383612449565b61211f600084848461216f565b61215e576040517f08c379a000000000000000000000000000000000000000000000000000000000815260040161215590613ba2565b60405180910390fd5b505050565b50505050565b50505050565b60006121908473ffffffffffffffffffffffffffffffffffffffff16612666565b156122e9578373ffffffffffffffffffffffffffffffffffffffff1663150b7a026121b9611970565b8786866040518563ffffffff1660e01b81526004016121db9493929190613c46565b6020604051808303816000875af192505050801561221757506040513d601f19601f820116820180604052508101906122149190613ca7565b60015b612299573d8060008114612247576040519150601f19603f3d011682016040523d82523d6000602084013e61224c565b606091505b506000815103612291576040517f08c379a000000000000000000000000000000000000000000000000000000000815260040161228890613ba2565b60405180910390fd5b805181602001fd5b63150b7a0260e01b7bffffffffffffffffffffffffffffffffffffffffffffffffffffffff1916817bffffffffffffffffffffffffffffffffffffffffffffffffffffffff1916149150506122ee565b600190505b949350505050565b600080600090507a184f03e93ff9f4daa797ed6e38ed64bf6a1f0100000000000000008310612354577a184f03e93ff9f4daa797ed6e38ed64bf6a1f010000000000000000838161234a57612349613bc2565b5b0492506040810190505b6d04ee2d6d415b85acef81000000008310612391576d04ee2d6d415b85acef8100000000838161238757612386613bc2565b5b0492506020810190505b662386f26fc1000083106123c057662386f26fc1000083816123b6576123b5613bc2565b5b0492506010810190505b6305f5e10083106123e9576305f5e10083816123df576123de613bc2565b5b0492506008810190505b612710831061240e57612710838161240457612403613bc2565b5b0492506004810190505b60648310612431576064838161242757612426613bc2565b5b0492506002810190505b600a8310612440576001810190505b80915050919050565b600073ffffffffffffffffffffffffffffffffffffffff168273ffffffffffffffffffffffffffffffffffffffff16036124b8576040517f08c379a00000000000000000000000000000000000000000000000000000000081526004016124af90613d20565b60405180910390fd5b6124c1816120c7565b15612501576040517f08c379a00000000000000000000000000000000000000000000000000000000081526004016124f890613d8c565b60405180910390fd5b61250f600083836001612163565b612518816120c7565b15612558576040517f08c379a000000000000000000000000000000000000000000000000000000000815260040161254f90613d8c565b60405180910390fd5b6001600360008473ffffffffffffffffffffffffffffffffffffffff1673ffffffffffffffffffffffffffffffffffffffff16815260200190815260200160002060008282540192505081905550816002600083815260200190815260200160002060006101000a81548173ffffffffffffffffffffffffffffffffffffffff021916908373ffffffffffffffffffffffffffffffffffffffff160217905550808273ffffffffffffffffffffffffffffffffffffffff16600073ffffffffffffffffffffffffffffffffffffffff167fddf252ad1be2c89b69c2b068fc378daa952ba7f163c4a11628f55a4df523b3ef60405160405180910390a4612662600083836001612169565b5050565b6000808273ffffffffffffffffffffffffffffffffffffffff163b119050919050565b60405180606001604052806000815260200160008152602001600081525090565b60405180610100016040528060008152602001606081526020016000815260200160008152602001600081526020016060815260200160608152602001606081525090565b6000604051905090565b600080fd5b600080fd5b60007fffffffff0000000000000000000000000000000000000000000000000000000082169050919050565b61273881612703565b811461274357600080fd5b50565b6000813590506127558161272f565b92915050565b600060208284031215612771576127706126f9565b5b600061277f84828501612746565b91505092915050565b60008115159050919050565b61279d81612788565b82525050565b60006020820190506127b86000830184612794565b92915050565b600073ffffffffffffffffffffffffffffffffffffffff82169050919050565b60006127e9826127be565b9050919050565b6127f9816127de565b811461280457600080fd5b50565b600081359050612816816127f0565b92915050565b600060208284031215612832576128316126f9565b5b600061284084828501612807565b91505092915050565b600081519050919050565b600082825260208201905092915050565b6000819050602082019050919050565b6000819050919050565b61288881612875565b82525050565b6060820160008201516128a4600085018261287f565b5060208201516128b7602085018261287f565b5060408201516128ca604085018261287f565b50505050565b60006128dc838361288e565b60608301905092915050565b6000602082019050919050565b600061290082612849565b61290a8185612854565b935061291583612865565b8060005b8381101561294657815161292d88826128d0565b9750612938836128e8565b925050600181019050612919565b5085935050505092915050565b6000602082019050818103600083015261296d81846128f5565b905092915050565b600081519050919050565b600082825260208201905092915050565b60005b838110156129af578082015181840152602081019050612994565b60008484015250505050565b6000601f19601f8301169050919050565b60006129d782612975565b6129e18185612980565b93506129f1818560208601612991565b6129fa816129bb565b840191505092915050565b60006020820190508181036000830152612a1f81846129cc565b905092915050565b612a3081612875565b8114612a3b57600080fd5b50565b600081359050612a4d81612a27565b92915050565b600060208284031215612a6957612a686126f9565b5b6000612a7784828501612a3e565b91505092915050565b612a89816127de565b82525050565b6000602082019050612aa46000830184612a80565b92915050565b60008060408385031215612ac157612ac06126f9565b5b6000612acf85828601612807565b9250506020612ae085828601612a3e565b9150509250929050565b600081519050919050565b600082825260208201905092915050565b6000819050602082019050919050565b6000612b22838361287f565b60208301905092915050565b6000602082019050919050565b6000612b4682612aea565b612b508185612af5565b9350612b5b83612b06565b8060005b83811015612b8c578151612b738882612b16565b9750612b7e83612b2e565b925050600181019050612b5f565b5085935050505092915050565b60006020820190508181036000830152612bb38184612b3b565b905092915050565b612bc481612875565b82525050565b6000602082019050612bdf6000830184612bbb565b92915050565b60008060408385031215612bfc57612bfb6126f9565b5b6000612c0a85828601612a3e565b9250506020612c1b85828601612a3e565b9150509250929050565b600080600060608486031215612c3e57612c3d6126f9565b5b6000612c4c86828701612807565b9350506020612c5d86828701612807565b9250506040612c6e86828701612a3e565b9150509250925092565b600082825260208201905092915050565b6000612c9482612975565b612c9e8185612c78565b9350612cae818560208601612991565b612cb7816129bb565b840191505092915050565b600061010083016000830151612cdb600086018261287f565b5060208301518482036020860152612cf38282612c89565b9150506040830151612d08604086018261287f565b506060830151612d1b606086018261287f565b506080830151612d2e608086018261287f565b5060a083015184820360a0860152612d468282612c89565b91505060c083015184820360c0860152612d608282612c89565b91505060e083015184820360e0860152612d7a8282612c89565b9150508091505092915050565b60006020820190508181036000830152612da18184612cc2565b905092915050565b600080fd5b600080fd5b7f4e487b7100000000000000000000000000000000000000000000000000000000600052604160045260246000fd5b612deb826129bb565b810181811067ffffffffffffffff82111715612e0a57612e09612db3565b5b80604052505050565b6000612e1d6126ef565b9050612e298282612de2565b919050565b600067ffffffffffffffff821115612e4957612e48612db3565b5b612e52826129bb565b9050602081019050919050565b82818337600083830152505050565b6000612e81612e7c84612e2e565b612e13565b905082815260208101848484011115612e9d57612e9c612dae565b5b612ea8848285612e5f565b509392505050565b600082601f830112612ec557612ec4612da9565b5b8135612ed5848260208601612e6e565b91505092915050565b60008060008060008060c08789031215612efb57612efa6126f9565b5b600087013567ffffffffffffffff811115612f1957612f186126fe565b5b612f2589828a01612eb0565b9650506020612f3689828a01612a3e565b9550506040612f4789828a01612a3e565b945050606087013567ffffffffffffffff811115612f6857612f676126fe565b5b612f7489828a01612eb0565b935050608087013567ffffffffffffffff811115612f9557612f946126fe565b5b612fa189828a01612eb0565b92505060a087013567ffffffffffffffff811115612fc257612fc16126fe565b5b612fce89828a01612eb0565b9150509295509295509295565b60008060408385031215612ff257612ff16126f9565b5b600061300085828601612a3e565b925050602061301185828601612807565b9150509250929050565b61302481612788565b811461302f57600080fd5b50565b6000813590506130418161301b565b92915050565b6000806040838503121561305e5761305d6126f9565b5b600061306c85828601612807565b925050602061307d85828601613032565b9150509250929050565b600067ffffffffffffffff8211156130a2576130a1612db3565b5b6130ab826129bb565b9050602081019050919050565b60006130cb6130c684613087565b612e13565b9050828152602081018484840111156130e7576130e6612dae565b5b6130f2848285612e5f565b509392505050565b600082601f83011261310f5761310e612da9565b5b813561311f8482602086016130b8565b91505092915050565b60008060008060808587031215613142576131416126f9565b5b600061315087828801612807565b945050602061316187828801612807565b935050604061317287828801612a3e565b925050606085013567ffffffffffffffff811115613193576131926126fe565b5b61319f878288016130fa565b91505092959194509250565b60006060820190506131c06000830186612bbb565b6131cd6020830185612bbb565b6131da6040830184612bbb565b949350505050565b600080604083850312156131f9576131f86126f9565b5b600061320785828601612807565b925050602061321885828601612807565b9150509250929050565b7f4e487b7100000000000000000000000000000000000000000000000000000000600052603260045260246000fd5b7f4e487b7100000000000000000000000000000000000000000000000000000000600052601160045260246000fd5b600061328b82612875565b91507fffffffffffffffffffffffffffffffffffffffffffffffffffffffffffffffff82036132bd576132bc613251565b5b600182019050919050565b7f4e487b7100000000000000000000000000000000000000000000000000000000600052602260045260246000fd5b6000600282049050600182168061330f57607f821691505b602082108103613322576133216132c8565b5b50919050565b7f4552433732313a20617070726f76616c20746f2063757272656e74206f776e6560008201527f7200000000000000000000000000000000000000000000000000000000000000602082015250565b6000613384602183612980565b915061338f82613328565b604082019050919050565b600060208201905081810360008301526133b381613377565b9050919050565b7f4552433732313a20617070726f76652063616c6c6572206973206e6f7420746f60008201527f6b656e206f776e6572206f7220617070726f76656420666f7220616c6c000000602082015250565b6000613416603d83612980565b9150613421826133ba565b604082019050919050565b6000602082019050818103600083015261344581613409565b9050919050565b600061345782612875565b915061346283612875565b925082820390508181111561347a57613479613251565b5b92915050565b7f4552433732313a2063616c6c6572206973206e6f7420746f6b656e206f776e6560008201527f72206f7220617070726f76656400000000000000000000000000000000000000602082015250565b60006134dc602d83612980565b91506134e782613480565b604082019050919050565b6000602082019050818103600083015261350b816134cf565b9050919050565b600081905092915050565b50565b600061352d600083613512565b91506135388261351d565b600082019050919050565b600061354e82613520565b9150819050919050565b7f4552433732313a20696e76616c696420746f6b656e2049440000000000000000600082015250565b600061358e601883612980565b915061359982613558565b602082019050919050565b600060208201905081810360008301526135bd81613581565b9050919050565b7f4552433732313a2061646472657373207a65726f206973206e6f74206120766160008201527f6c6964206f776e65720000000000000000000000000000000000000000000000602082015250565b6000613620602983612980565b915061362b826135c4565b604082019050919050565b6000602082019050818103600083015261364f81613613565b9050919050565b60008190508160005260206000209050919050565b60006020601f8301049050919050565b600082821b905092915050565b6000600883026136b87fffffffffffffffffffffffffffffffffffffffffffffffffffffffffffffffff8261367b565b6136c2868361367b565b95508019841693508086168417925050509392505050565b6000819050919050565b60006136ff6136fa6136f584612875565b6136da565b612875565b9050919050565b6000819050919050565b613719836136e4565b61372d61372582613706565b848454613688565b825550505050565b600090565b613742613735565b61374d818484613710565b505050565b5b818110156137715761376660008261373a565b600181019050613753565b5050565b601f8211156137b65761378781613656565b6137908461366b565b8101602085101561379f578190505b6137b36137ab8561366b565b830182613752565b50505b505050565b600082821c905092915050565b60006137d9600019846008026137bb565b1980831691505092915050565b60006137f283836137c8565b9150826002028217905092915050565b61380b82612975565b67ffffffffffffffff81111561382457613823612db3565b5b61382e82546132f7565b613839828285613775565b600060209050601f83116001811461386c576000841561385a578287015190505b61386485826137e6565b8655506138cc565b601f19841661387a86613656565b60005b828110156138a25784890151825560018201915060208501945060208101905061387d565b868310156138bf57848901516138bb601f8916826137c8565b8355505b6001600288020188555050505b505050505050565b600081905092915050565b60006138ea82612975565b6138f481856138d4565b9350613904818560208601612991565b80840191505092915050565b600061391c82856138df565b915061392882846138df565b91508190509392505050565b7f5469636b6574204944206f7574206f662072616e676500000000000000000000600082015250565b600061396a601683612980565b915061397582613934565b602082019050919050565b600060208201905081810360008301526139998161395d565b9050919050565b7f4552433732313a207472616e736665722066726f6d20696e636f72726563742060008201527f6f776e6572000000000000000000000000000000000000000000000000000000602082015250565b60006139fc602583612980565b9150613a07826139a0565b604082019050919050565b60006020820190508181036000830152613a2b816139ef565b9050919050565b7f4552433732313a207472616e7366657220746f20746865207a65726f2061646460008201527f7265737300000000000000000000000000000000000000000000000000000000602082015250565b6000613a8e602483612980565b9150613a9982613a32565b604082019050919050565b60006020820190508181036000830152613abd81613a81565b9050919050565b7f4552433732313a20617070726f766520746f2063616c6c657200000000000000600082015250565b6000613afa601983612980565b9150613b0582613ac4565b602082019050919050565b60006020820190508181036000830152613b2981613aed565b9050919050565b7f4552433732313a207472616e7366657220746f206e6f6e20455243373231526560008201527f63656976657220696d706c656d656e7465720000000000000000000000000000602082015250565b6000613b8c603283612980565b9150613b9782613b30565b604082019050919050565b60006020820190508181036000830152613bbb81613b7f565b9050919050565b7f4e487b7100000000000000000000000000000000000000000000000000000000600052601260045260246000fd5b600081519050919050565b600082825260208201905092915050565b6000613c1882613bf1565b613c228185613bfc565b9350613c32818560208601612991565b613c3b816129bb565b840191505092915050565b6000608082019050613c5b6000830187612a80565b613c686020830186612a80565b613c756040830185612bbb565b8181036060830152613c878184613c0d565b905095945050505050565b600081519050613ca18161272f565b92915050565b600060208284031215613cbd57613cbc6126f9565b5b6000613ccb84828501613c92565b91505092915050565b7f4552433732313a206d696e7420746f20746865207a65726f2061646472657373600082015250565b6000613d0a602083612980565b9150613d1582613cd4565b602082019050919050565b60006020820190508181036000830152613d3981613cfd565b9050919050565b7f4552433732313a20746f6b656e20616c7265616479206d696e74656400000000600082015250565b6000613d76601c83612980565b9150613d8182613d40565b602082019050919050565b60006020820190508181036000830152613da581613d69565b905091905056fea2646970667358221220f72b36612a29ab411471e2c423528c5eabc9ce60a04aa3920dbd0689a813f79864736f6c63430008110033",
  "linkReferences": {},
  "deployedLinkReferences": {}
}