{
  "_format": "hh-sol-artifact-1",
  "contractName": "TokenMaster",
  "sourceName": "contracts/TokenMaster.sol",
  "abi": [
    {
      "inputs": [
        {
          "internalType": "string",
          "name": "_name",
          "type": "string"
        },
        {
          "internalType": "string",
          "name": "_symbol",
          "type": "string"
        }
      ],
      "stateMutability": "nonpayable",
      "type": "constructor"
    },
    {
      "anonymous": false,
      "inputs": [
        {
          "indexed": true,
          "internalType": "address",
          "name": "owner",
          "type": "address"
        },
        {
          "indexed": true,
          "internalType": "address",
          "name": "approved",
          "type": "address"
        },
        {
          "indexed": true,
          "internalType": "uint256",
          "name": "tokenId",
          "type": "uint256"
        }
      ],
      "name": "Approval",
      "type": "event"
    },
    {
      "anonymous": false,
      "inputs": [
        {
          "indexed": true,
          "internalType": "address",
          "name": "owner",
          "type": "address"
        },
        {
          "indexed": true,
          "internalType": "address",
          "name": "operator",
          "type": "address"
        },
        {
          "indexed": false,
          "internalType": "bool",
          "name": "approved",
          "type": "bool"
        }
      ],
      "name": "ApprovalForAll",
      "type": "event"
    },
    {
      "anonymous": false,
      "inputs": [
        {
          "indexed": false,
          "internalType": "uint256",
          "name": "id",
          "type": "uint256"
        },
        {
          "indexed": false,
          "internalType": "uint256",
          "name": "cost",
          "type": "uint256"
        },
        {
          "indexed": false,
          "internalType": "uint256",
          "name": "tickets",
          "type": "uint256"
        }
      ],
      "name": "OccasionDetails",
      "type": "event"
    },
    {
      "anonymous": false,
      "inputs": [
        {
          "indexed": true,
          "internalType": "address",
          "name": "from",
          "type": "address"
        },
        {
          "indexed": true,
          "internalType": "address",
          "name": "to",
          "type": "address"
        },
        {
          "indexed": true,
          "internalType": "uint256",
          "name": "tokenId",
          "type": "uint256"
        }
      ],
      "name": "Transfer",
      "type": "event"
    },
    {
      "inputs": [
        {
          "internalType": "string",
          "name": "coupon",
          "type": "string"
        }
      ],
      "name": "applyDiscountCoupon",
      "outputs": [],
      "stateMutability": "nonpayable",
      "type": "function"
    },
    {
      "inputs": [
        {
          "internalType": "address",
          "name": "to",
          "type": "address"
        },
        {
          "internalType": "uint256",
          "name": "tokenId",
          "type": "uint256"
        }
      ],
      "name": "approve",
      "outputs": [],
      "stateMutability": "nonpayable",
      "type": "function"
    },
    {
      "inputs": [
        {
          "internalType": "address",
          "name": "owner",
          "type": "address"
        }
      ],
      "name": "balanceOf",
      "outputs": [
        {
          "internalType": "uint256",
          "name": "",
          "type": "uint256"
        }
      ],
      "stateMutability": "view",
      "type": "function"
    },
    {
      "inputs": [],
      "name": "discountThreshold",
      "outputs": [
        {
          "internalType": "uint256",
          "name": "",
          "type": "uint256"
        }
      ],
      "stateMutability": "view",
      "type": "function"
    },
    {
      "inputs": [
        {
          "internalType": "uint256",
          "name": "tokenId",
          "type": "uint256"
        }
      ],
      "name": "getApproved",
      "outputs": [
        {
          "internalType": "address",
          "name": "",
          "type": "address"
        }
      ],
      "stateMutability": "view",
      "type": "function"
    },
    {
      "inputs": [
        {
          "internalType": "uint256",
          "name": "_id",
          "type": "uint256"
        }
      ],
      "name": "getOccasion",
      "outputs": [
        {
          "components": [
            {
              "internalType": "uint256",
              "name": "id",
              "type": "uint256"
            },
            {
              "internalType": "string",
              "name": "name",
              "type": "string"
            },
            {
              "internalType": "uint256",
              "name": "cost",
              "type": "uint256"
            },
            {
              "internalType": "uint256",
              "name": "tickets",
              "type": "uint256"
            },
            {
              "internalType": "uint256",
              "name": "maxTickets",
              "type": "uint256"
            },
            {
              "internalType": "string",
              "name": "date",
              "type": "string"
            },
            {
              "internalType": "string",
              "name": "time",
              "type": "string"
            },
            {
              "internalType": "string",
              "name": "location",
              "type": "string"
            }
          ],
          "internalType": "struct TokenMaster.Occasion",
          "name": "",
          "type": "tuple"
        }
      ],
      "stateMutability": "view",
      "type": "function"
    },
    {
      "inputs": [
        {
          "internalType": "uint256",
          "name": "_id",
          "type": "uint256"
        }
      ],
      "name": "getSeatsTaken",
      "outputs": [
        {
          "internalType": "uint256[]",
          "name": "",
          "type": "uint256[]"
        }
      ],
      "stateMutability": "view",
      "type": "function"
    },
    {
      "inputs": [
        {
          "internalType": "address",
          "name": "user",
          "type": "address"
        },
        {
          "internalType": "uint256",
          "name": "_ticketId",
          "type": "uint256"
        }
      ],
      "name": "getTicketDetails",
      "outputs": [
        {
          "internalType": "uint256",
          "name": "",
          "type": "uint256"
        },
        {
          "internalType": "uint256",
          "name": "",
          "type": "uint256"
        },
        {
          "internalType": "uint256",
          "name": "",
          "type": "uint256"
        }
      ],
      "stateMutability": "view",
      "type": "function"
    },
    {
      "inputs": [
        {
          "internalType": "address",
          "name": "user",
          "type": "address"
        }
      ],
      "name": "getUserTickets",
      "outputs": [
        {
          "components": [
            {
              "internalType": "uint256",
              "name": "id",
              "type": "uint256"
            },
            {
              "internalType": "uint256",
              "name": "occasionId",
              "type": "uint256"
            },
            {
              "internalType": "uint256",
              "name": "seat",
              "type": "uint256"
            }
          ],
          "internalType": "struct TokenMaster.Ticket[]",
          "name": "",
          "type": "tuple[]"
        }
      ],
      "stateMutability": "view",
      "type": "function"
    },
    {
      "inputs": [
        {
          "internalType": "uint256",
          "name": "",
          "type": "uint256"
        },
        {
          "internalType": "address",
          "name": "",
          "type": "address"
        }
      ],
      "name": "hasBought",
      "outputs": [
        {
          "internalType": "bool",
          "name": "",
          "type": "bool"
        }
      ],
      "stateMutability": "view",
      "type": "function"
    },
    {
      "inputs": [
        {
          "internalType": "address",
          "name": "owner",
          "type": "address"
        },
        {
          "internalType": "address",
          "name": "operator",
          "type": "address"
        }
      ],
      "name": "isApprovedForAll",
      "outputs": [
        {
          "internalType": "bool",
          "name": "",
          "type": "bool"
        }
      ],
      "stateMutability": "view",
      "type": "function"
    },
    {
      "inputs": [
        {
          "internalType": "string",
          "name": "_name",
          "type": "string"
        },
        {
          "internalType": "uint256",
          "name": "_cost",
          "type": "uint256"
        },
        {
          "internalType": "uint256",
          "name": "_maxTickets",
          "type": "uint256"
        },
        {
          "internalType": "string",
          "name": "_date",
          "type": "string"
        },
        {
          "internalType": "string",
          "name": "_time",
          "type": "string"
        },
        {
          "internalType": "string",
          "name": "_location",
          "type": "string"
        }
      ],
      "name": "list",
      "outputs": [],
      "stateMutability": "nonpayable",
      "type": "function"
    },
    {
      "inputs": [
        {
          "internalType": "uint256",
          "name": "_id",
          "type": "uint256"
        },
        {
          "internalType": "uint256",
          "name": "_seat",
          "type": "uint256"
        }
      ],
      "name": "mint",
      "outputs": [],
      "stateMutability": "payable",
      "type": "function"
    },
    {
      "inputs": [],
      "name": "name",
      "outputs": [
        {
          "internalType": "string",
          "name": "",
          "type": "string"
        }
      ],
      "stateMutability": "view",
      "type": "function"
    },
    {
      "inputs": [],
      "name": "owner",
      "outputs": [
        {
          "internalType": "address",
          "name": "",
          "type": "address"
        }
      ],
      "stateMutability": "view",
      "type": "function"
    },
    {
      "inputs": [
        {
          "internalType": "uint256",
          "name": "tokenId",
          "type": "uint256"
        }
      ],
      "name": "ownerOf",
      "outputs": [
        {
          "internalType": "address",
          "name": "",
          "type": "address"
        }
      ],
      "stateMutability": "view",
      "type": "function"
    },
    {
      "inputs": [
        {
          "internalType": "address",
          "name": "from",
          "type": "address"
        },
        {
          "internalType": "address",
          "name": "to",
          "type": "address"
        },
        {
          "internalType": "uint256",
          "name": "tokenId",
          "type": "uint256"
        }
      ],
      "name": "safeTransferFrom",
      "outputs": [],
      "stateMutability": "nonpayable",
      "type": "function"
    },
    {
      "inputs": [
        {
          "internalType": "address",
          "name": "from",
          "type": "address"
        },
        {
          "internalType": "address",
          "name": "to",
          "type": "address"
        },
        {
          "internalType": "uint256",
          "name": "tokenId",
          "type": "uint256"
        },
        {
          "internalType": "bytes",
          "name": "data",
          "type": "bytes"
        }
      ],
      "name": "safeTransferFrom",
      "outputs": [],
      "stateMutability": "nonpayable",
      "type": "function"
    },
    {
      "inputs": [
        {
          "internalType": "uint256",
          "name": "",
          "type": "uint256"
        },
        {
          "internalType": "uint256",
          "name": "",
          "type": "uint256"
        }
      ],
      "name": "seatTaken",
      "outputs": [
        {
          "internalType": "address",
          "name": "",
          "type": "address"
        }
      ],
      "stateMutability": "view",
      "type": "function"
    },
    {
      "inputs": [
        {
          "internalType": "address",
          "name": "operator",
          "type": "address"
        },
        {
          "internalType": "bool",
          "name": "approved",
          "type": "bool"
        }
      ],
      "name": "setApprovalForAll",
      "outputs": [],
      "stateMutability": "nonpayable",
      "type": "function"
    },
    {
      "inputs": [
        {
          "internalType": "bytes4",
          "name": "interfaceId",
          "type": "bytes4"
        }
      ],
      "name": "supportsInterface",
      "outputs": [
        {
          "internalType": "bool",
          "name": "",
          "type": "bool"
        }
      ],
      "stateMutability": "view",
      "type": "function"
    },
    {
      "inputs": [],
      "name": "symbol",
      "outputs": [
        {
          "internalType": "string",
          "name": "",
          "type": "string"
        }
      ],
      "stateMutability": "view",
      "type": "function"
    },
    {
      "inputs": [
        {
          "internalType": "uint256",
          "name": "tokenId",
          "type": "uint256"
        }
      ],
      "name": "tokenURI",
      "outputs": [
        {
          "internalType": "string",
          "name": "",
          "type": "string"
        }
      ],
      "stateMutability": "view",
      "type": "function"
    },
    {
      "inputs": [],
      "name": "totalOccasions",
      "outputs": [
        {
          "internalType": "uint256",
          "name": "",
          "type": "uint256"
        }
      ],
      "stateMutability": "view",
      "type": "function"
    },
    {
      "inputs": [],
      "name": "totalSupply",
      "outputs": [
        {
          "internalType": "uint256",
          "name": "",
          "type": "uint256"
        }
      ],
      "stateMutability": "view",
      "type": "function"
    },
    {
      "inputs": [
        {
          "internalType": "address",
          "name": "from",
          "type": "address"
        },
        {
          "internalType": "address",
          "name": "to",
          "type": "address"
        },
        {
          "internalType": "uint256",
          "name": "tokenId",
          "type": "uint256"
        }
      ],
      "name": "transferFrom",
      "outputs": [],
      "stateMutability": "nonpayable",
      "type": "function"
    },
    {
      "inputs": [
        {
          "internalType": "address",
          "name": "",
          "type": "address"
        }
      ],
      "name": "userDiscountCoupons",
      "outputs": [
        {
          "internalType": "string",
          "name": "",
          "type": "string"
        }
      ],
      "stateMutability": "view",
      "type": "function"
    },
    {
      "inputs": [
        {
          "internalType": "address",
          "name": "",
          "type": "address"
        },
        {
          "internalType": "uint256",
          "name": "",
          "type": "uint256"
        }
      ],
      "name": "userTickets",
      "outputs": [
        {
          "internalType": "uint256",
          "name": "id",
          "type": "uint256"
        },
        {
          "internalType": "uint256",
          "name": "occasionId",
          "type": "uint256"
        },
        {
          "internalType": "uint256",
          "name": "seat",
          "type": "uint256"
        }
      ],
      "stateMutability": "view",
      "type": "function"
    },
    {
      "inputs": [
        {
          "internalType": "string",
          "name": "coupon",
          "type": "string"
        }
      ],
      "name": "validateDiscountCoupon",
      "outputs": [
        {
          "internalType": "bool",
          "name": "",
          "type": "bool"
        }
      ],
      "stateMutability": "pure",
      "type": "function"
    },
    {
      "inputs": [],
      "name": "withdraw",
      "outputs": [],
      "stateMutability": "nonpayable",
      "type": "function"
    }
  ],
  "bytecode": "0x608060405260646009553480156200001657600080fd5b5060405162004d3938038062004d3983398181016040528101906200003c919062000308565b8181816000908051906020019062000056929190620000bb565b5080600190805190602001906200006f929190620000bb565b50505033600660006101000a81548173ffffffffffffffffffffffffffffffffffffffff021916908373ffffffffffffffffffffffffffffffffffffffff1602179055505050620003f2565b828054620000c990620003bc565b90600052602060002090601f016020900481019282620000ed576000855562000139565b82601f106200010857805160ff191683800117855562000139565b8280016001018555821562000139579182015b82811115620001385782518255916020019190600101906200011b565b5b5090506200014891906200014c565b5090565b5b80821115620001675760008160009055506001016200014d565b5090565b6000604051905090565b600080fd5b600080fd5b600080fd5b600080fd5b6000601f19601f8301169050919050565b7f4e487b7100000000000000000000000000000000000000000000000000000000600052604160045260246000fd5b620001d48262000189565b810181811067ffffffffffffffff82111715620001f657620001f56200019a565b5b80604052505050565b60006200020b6200016b565b9050620002198282620001c9565b919050565b600067ffffffffffffffff8211156200023c576200023b6200019a565b5b620002478262000189565b9050602081019050919050565b60005b838110156200027457808201518184015260208101905062000257565b8381111562000284576000848401525b50505050565b6000620002a16200029b846200021e565b620001ff565b905082815260208101848484011115620002c057620002bf62000184565b5b620002cd84828562000254565b509392505050565b600082601f830112620002ed57620002ec6200017f565b5b8151620002ff8482602086016200028a565b91505092915050565b6000806040838503121562000322576200032162000175565b5b600083015167ffffffffffffffff8111156200034357620003426200017a565b5b6200035185828601620002d5565b925050602083015167ffffffffffffffff8111156200037557620003746200017a565b5b6200038385828601620002d5565b9150509250929050565b7f4e487b7100000000000000000000000000000000000000000000000000000000600052602260045260246000fd5b60006002820490506001821680620003d557607f821691505b60208210811415620003ec57620003eb6200038d565b5b50919050565b61493780620004026000396000f3fe6080604052600436106101cd5760003560e01c80638da5cb5b116100f7578063a22cb46511610095578063cb0856bb11610064578063cb0856bb146106d7578063cf260baf14610702578063e985e9c514610741578063ed9a2ea31461077e576101cd565b8063a22cb4651461060b578063af296da114610634578063b88d4fde14610671578063c87b56dd1461069a576101cd565b806395d89b41116100d157806395d89b411461053d5780639a382f0f146105685780639cb04aef146105915780639da0a367146105ce576101cd565b80638da5cb5b146104be578063916788db146104e9578063953865c114610512576101cd565b80631a8ac0881161016f57806342842e0e1161013e57806342842e0e146103de5780636352211e1461040757806370a082311461044457806374bc865614610481576101cd565b80631a8ac088146103455780631b2ef1ca1461038257806323b872dd1461039e5780633ccfd60b146103c7576101cd565b8063081812fc116101ab578063081812fc14610277578063095ea7b3146102b45780630ef7ec74146102dd57806318160ddd1461031a576101cd565b806301ffc9a7146101d25780630484a22f1461020f57806306fdde031461024c575b600080fd5b3480156101de57600080fd5b506101f960048036038101906101f49190613077565b6107bd565b60405161020691906130bf565b60405180910390f35b34801561021b57600080fd5b5061023660048036038101906102319190613138565b61089f565b604051610243919061326f565b60405180910390f35b34801561025857600080fd5b506102616109d5565b60405161026e919061332a565b60405180910390f35b34801561028357600080fd5b5061029e60048036038101906102999190613378565b610a67565b6040516102ab91906133b4565b60405180910390f35b3480156102c057600080fd5b506102db60048036038101906102d691906133cf565b610aad565b005b3480156102e957600080fd5b5061030460048036038101906102ff9190613378565b610bc5565b60405161031191906134be565b60405180910390f35b34801561032657600080fd5b5061032f610c30565b60405161033c91906134ef565b60405180910390f35b34801561035157600080fd5b5061036c60048036038101906103679190613138565b610c36565b604051610379919061332a565b60405180910390f35b61039c6004803603810190610397919061350a565b610cd6565b005b3480156103aa57600080fd5b506103c560048036038101906103c0919061354a565b6112fb565b005b3480156103d357600080fd5b506103dc61135b565b005b3480156103ea57600080fd5b506104056004803603810190610400919061354a565b611450565b005b34801561041357600080fd5b5061042e60048036038101906104299190613378565b611470565b60405161043b91906133b4565b60405180910390f35b34801561045057600080fd5b5061046b60048036038101906104669190613138565b6114f7565b60405161047891906134ef565b60405180910390f35b34801561048d57600080fd5b506104a860048036038101906104a39190613378565b6115af565b6040516104b591906136ac565b60405180910390f35b3480156104ca57600080fd5b506104d36119f2565b6040516104e091906133b4565b60405180910390f35b3480156104f557600080fd5b50610510600480360381019061050b9190613803565b611a18565b005b34801561051e57600080fd5b50610527611b45565b60405161053491906134ef565b60405180910390f35b34801561054957600080fd5b50610552611b4b565b60405161055f919061332a565b60405180910390f35b34801561057457600080fd5b5061058f600480360381019061058a919061384c565b611bdd565b005b34801561059d57600080fd5b506105b860048036038101906105b39190613949565b611d47565b6040516105c591906130bf565b60405180910390f35b3480156105da57600080fd5b506105f560048036038101906105f09190613803565b611d76565b60405161060291906130bf565b60405180910390f35b34801561061757600080fd5b50610632600480360381019061062d91906139b5565b611dcc565b005b34801561064057600080fd5b5061065b6004803603810190610656919061350a565b611de2565b60405161066891906133b4565b60405180910390f35b34801561067d57600080fd5b5061069860048036038101906106939190613a96565b611e24565b005b3480156106a657600080fd5b506106c160048036038101906106bc9190613378565b611e86565b6040516106ce919061332a565b60405180910390f35b3480156106e357600080fd5b506106ec611eee565b6040516106f991906134ef565b60405180910390f35b34801561070e57600080fd5b50610729600480360381019061072491906133cf565b611ef4565b60405161073893929190613b19565b60405180910390f35b34801561074d57600080fd5b5061076860048036038101906107639190613b50565b611f3b565b60405161077591906130bf565b60405180910390f35b34801561078a57600080fd5b506107a560048036038101906107a091906133cf565b611fcf565b6040516107b493929190613b19565b60405180910390f35b60007f80ac58cd000000000000000000000000000000000000000000000000000000007bffffffffffffffffffffffffffffffffffffffffffffffffffffffff1916827bffffffffffffffffffffffffffffffffffffffffffffffffffffffff1916148061088857507f5b5e139f000000000000000000000000000000000000000000000000000000007bffffffffffffffffffffffffffffffffffffffffffffffffffffffff1916827bffffffffffffffffffffffffffffffffffffffffffffffffffffffff1916145b80610898575061089782612101565b5b9050919050565b60606000600e60008473ffffffffffffffffffffffffffffffffffffffff1673ffffffffffffffffffffffffffffffffffffffff16815260200190815260200160002090506000818054905067ffffffffffffffff811115610904576109036136d8565b5b60405190808252806020026020018201604052801561093d57816020015b61092a612f02565b8152602001906001900390816109225790505b50905060005b82805490508110156109ca5782818154811061096257610961613b90565b5b906000526020600020906003020160405180606001604052908160008201548152602001600182015481526020016002820154815250508282815181106109ac576109ab613b90565b5b602002602001018190525080806109c290613bee565b915050610943565b508092505050919050565b6060600080546109e490613c66565b80601f0160208091040260200160405190810160405280929190818152602001828054610a1090613c66565b8015610a5d5780601f10610a3257610100808354040283529160200191610a5d565b820191906000526020600020905b815481529060010190602001808311610a4057829003601f168201915b5050505050905090565b6000610a728261216b565b6004600083815260200190815260200160002060009054906101000a900473ffffffffffffffffffffffffffffffffffffffff169050919050565b6000610ab882611470565b90508073ffffffffffffffffffffffffffffffffffffffff168373ffffffffffffffffffffffffffffffffffffffff161415610b29576040517f08c379a0000000000000000000000000000000000000000000000000000000008152600401610b2090613d0a565b60405180910390fd5b8073ffffffffffffffffffffffffffffffffffffffff16610b486121b6565b73ffffffffffffffffffffffffffffffffffffffff161480610b775750610b7681610b716121b6565b611f3b565b5b610bb6576040517f08c379a0000000000000000000000000000000000000000000000000000000008152600401610bad90613d9c565b60405180910390fd5b610bc083836121be565b505050565b6060600d6000838152602001908152602001600020805480602002602001604051908101604052809291908181526020018280548015610c2457602002820191906000526020600020905b815481526020019060010190808311610c10575b50505050509050919050565b60085481565b600f6020528060005260406000206000915090508054610c5590613c66565b80601f0160208091040260200160405190810160405280929190818152602001828054610c8190613c66565b8015610cce5780601f10610ca357610100808354040283529160200191610cce565b820191906000526020600020905b815481529060010190602001808311610cb157829003601f168201915b505050505081565b6000821415610d1a576040517f08c379a0000000000000000000000000000000000000000000000000000000008152600401610d1190613e08565b60405180910390fd5b600754821115610d5f576040517f08c379a0000000000000000000000000000000000000000000000000000000008152600401610d5690613e74565b60405180910390fd5b60003411610da2576040517f08c379a0000000000000000000000000000000000000000000000000000000008152600401610d9990613ee0565b60405180910390fd5b6000600a60008481526020019081526020016000206002015490506000600f60003373ffffffffffffffffffffffffffffffffffffffff1673ffffffffffffffffffffffffffffffffffffffff1681526020019081526020016000208054610e0990613c66565b90501115610f3d57610ee1600f60003373ffffffffffffffffffffffffffffffffffffffff1673ffffffffffffffffffffffffffffffffffffffff1681526020019081526020016000208054610e5e90613c66565b80601f0160208091040260200160405190810160405280929190818152602001828054610e8a90613c66565b8015610ed75780601f10610eac57610100808354040283529160200191610ed7565b820191906000526020600020905b815481529060010190602001808311610eba57829003601f168201915b5050505050611d76565b610f20576040517f08c379a0000000000000000000000000000000000000000000000000000000008152600401610f1790613f4c565b60405180910390fd5b600060019050610f39818361227790919063ffffffff16565b9150505b80341015610f80576040517f08c379a0000000000000000000000000000000000000000000000000000000008152600401610f7790613fb8565b60405180910390fd5b600073ffffffffffffffffffffffffffffffffffffffff16600c6000858152602001908152602001600020600084815260200190815260200160002060009054906101000a900473ffffffffffffffffffffffffffffffffffffffff1673ffffffffffffffffffffffffffffffffffffffff1614611033576040517f08c379a000000000000000000000000000000000000000000000000000000000815260040161102a90614024565b60405180910390fd5b600a60008481526020019081526020016000206004015482111561108c576040517f08c379a000000000000000000000000000000000000000000000000000000000815260040161108390614090565b60405180910390fd5b6001600a600085815260200190815260200160002060030160008282546110b391906140b0565b925050819055506001600b600085815260200190815260200160002060003373ffffffffffffffffffffffffffffffffffffffff1673ffffffffffffffffffffffffffffffffffffffff16815260200190815260200160002060006101000a81548160ff02191690831515021790555033600c6000858152602001908152602001600020600084815260200190815260200160002060006101000a81548173ffffffffffffffffffffffffffffffffffffffff021916908373ffffffffffffffffffffffffffffffffffffffff160217905550600d6000848152602001908152602001600020829080600181540180825580915050600190039060005260206000200160009091909190915055600860008154809291906111d390613bee565b9190505550600060405180606001604052806008548152602001858152602001848152509050600e60003373ffffffffffffffffffffffffffffffffffffffff1673ffffffffffffffffffffffffffffffffffffffff168152602001908152602001600020819080600181540180825580915050600190039060005260206000209060030201600090919091909150600082015181600001556020820151816001015560408201518160020155505061128e3360085461228d565b7f0ebead1cf13de3d6e5b13778d3679036a6c44c36eb7ca02b4a42badecb9cb7c784600a600087815260200190815260200160002060020154600a6000888152602001908152602001600020600301546040516112ed93929190613b19565b60405180910390a150505050565b61130c6113066121b6565b826122ab565b61134b576040517f08c379a000000000000000000000000000000000000000000000000000000000815260040161134290614156565b60405180910390fd5b611356838383612340565b505050565b600660009054906101000a900473ffffffffffffffffffffffffffffffffffffffff1673ffffffffffffffffffffffffffffffffffffffff163373ffffffffffffffffffffffffffffffffffffffff16146113b557600080fd5b6000600660009054906101000a900473ffffffffffffffffffffffffffffffffffffffff1673ffffffffffffffffffffffffffffffffffffffff16476040516113fd906141a7565b60006040518083038185875af1925050503d806000811461143a576040519150601f19603f3d011682016040523d82523d6000602084013e61143f565b606091505b505090508061144d57600080fd5b50565b61146b83838360405180602001604052806000815250611e24565b505050565b60008061147c8361263a565b9050600073ffffffffffffffffffffffffffffffffffffffff168173ffffffffffffffffffffffffffffffffffffffff1614156114ee576040517f08c379a00000000000000000000000000000000000000000000000000000000081526004016114e590614208565b60405180910390fd5b80915050919050565b60008073ffffffffffffffffffffffffffffffffffffffff168273ffffffffffffffffffffffffffffffffffffffff161415611568576040517f08c379a000000000000000000000000000000000000000000000000000000000815260040161155f9061429a565b60405180910390fd5b600360008373ffffffffffffffffffffffffffffffffffffffff1673ffffffffffffffffffffffffffffffffffffffff168152602001908152602001600020549050919050565b6115b7612f23565b6000600a600084815260200190815260200160002060405180610100016040529081600082015481526020016001820180546115f290613c66565b80601f016020809104026020016040519081016040528092919081815260200182805461161e90613c66565b801561166b5780601f106116405761010080835404028352916020019161166b565b820191906000526020600020905b81548152906001019060200180831161164e57829003601f168201915b505050505081526020016002820154815260200160038201548152602001600482015481526020016005820180546116a290613c66565b80601f01602080910402602001604051908101604052809291908181526020018280546116ce90613c66565b801561171b5780601f106116f05761010080835404028352916020019161171b565b820191906000526020600020905b8154815290600101906020018083116116fe57829003601f168201915b5050505050815260200160068201805461173490613c66565b80601f016020809104026020016040519081016040528092919081815260200182805461176090613c66565b80156117ad5780601f10611782576101008083540402835291602001916117ad565b820191906000526020600020905b81548152906001019060200180831161179057829003601f168201915b505050505081526020016007820180546117c690613c66565b80601f01602080910402602001604051908101604052809291908181526020018280546117f290613c66565b801561183f5780601f106118145761010080835404028352916020019161183f565b820191906000526020600020905b81548152906001019060200180831161182257829003601f168201915b50505050508152505090506000600f60003373ffffffffffffffffffffffffffffffffffffffff1673ffffffffffffffffffffffffffffffffffffffff168152602001908152602001600020805461189690613c66565b905011156119e95761196e600f60003373ffffffffffffffffffffffffffffffffffffffff1673ffffffffffffffffffffffffffffffffffffffff16815260200190815260200160002080546118eb90613c66565b80601f016020809104026020016040519081016040528092919081815260200182805461191790613c66565b80156119645780601f1061193957610100808354040283529160200191611964565b820191906000526020600020905b81548152906001019060200180831161194757829003601f168201915b5050505050611d76565b6119ad576040517f08c379a00000000000000000000000000000000000000000000000000000000081526004016119a490613f4c565b60405180910390fd5b60006064600a83604001516119c291906142ba565b6119cc9190614343565b90508082604001516119de91906140b0565b826040018181525050505b80915050919050565b600660009054906101000a900473ffffffffffffffffffffffffffffffffffffffff1681565b6000600f60003373ffffffffffffffffffffffffffffffffffffffff1673ffffffffffffffffffffffffffffffffffffffff1681526020019081526020016000208054611a6490613c66565b905014611aa6576040517f08c379a0000000000000000000000000000000000000000000000000000000008152600401611a9d906143c0565b60405180910390fd5b611aaf81611d76565b611aee576040517f08c379a0000000000000000000000000000000000000000000000000000000008152600401611ae590613f4c565b60405180910390fd5b80600f60003373ffffffffffffffffffffffffffffffffffffffff1673ffffffffffffffffffffffffffffffffffffffff1681526020019081526020016000209080519060200190611b41929190612f68565b5050565b60075481565b606060018054611b5a90613c66565b80601f0160208091040260200160405190810160405280929190818152602001828054611b8690613c66565b8015611bd35780601f10611ba857610100808354040283529160200191611bd3565b820191906000526020600020905b815481529060010190602001808311611bb657829003601f168201915b5050505050905090565b600660009054906101000a900473ffffffffffffffffffffffffffffffffffffffff1673ffffffffffffffffffffffffffffffffffffffff163373ffffffffffffffffffffffffffffffffffffffff1614611c3757600080fd5b60076000815480929190611c4a90613bee565b9190505550604051806101000160405280600754815260200187815260200186815260200185815260200185815260200184815260200183815260200182815250600a60006007548152602001908152602001600020600082015181600001556020820151816001019080519060200190611cc6929190612f68565b5060408201518160020155606082015181600301556080820151816004015560a0820151816005019080519060200190611d01929190612f68565b5060c0820151816006019080519060200190611d1e929190612f68565b5060e0820151816007019080519060200190611d3b929190612f68565b50905050505050505050565b600b6020528160005260406000206020528060005260406000206000915091509054906101000a900460ff1681565b6000604051602001611d8790614437565b6040516020818303038152906040528051906020012082604051602001611dae919061447d565b60405160208183030381529060405280519060200120149050919050565b611dde611dd76121b6565b8383612677565b5050565b600c6020528160005260406000206020528060005260406000206000915091509054906101000a900473ffffffffffffffffffffffffffffffffffffffff1681565b611e35611e2f6121b6565b836122ab565b611e74576040517f08c379a0000000000000000000000000000000000000000000000000000000008152600401611e6b90614156565b60405180910390fd5b611e80848484846127e4565b50505050565b6060611e918261216b565b6000611e9b612840565b90506000815111611ebb5760405180602001604052806000815250611ee6565b80611ec584612857565b604051602001611ed6929190614494565b6040516020818303038152906040525b915050919050565b60095481565b600e6020528160005260406000208181548110611f1057600080fd5b9060005260206000209060030201600091509150508060000154908060010154908060020154905083565b6000600560008473ffffffffffffffffffffffffffffffffffffffff1673ffffffffffffffffffffffffffffffffffffffff16815260200190815260200160002060008373ffffffffffffffffffffffffffffffffffffffff1673ffffffffffffffffffffffffffffffffffffffff16815260200190815260200160002060009054906101000a900460ff16905092915050565b6000806000600e60008673ffffffffffffffffffffffffffffffffffffffff1673ffffffffffffffffffffffffffffffffffffffff168152602001908152602001600020805490508410612058576040517f08c379a000000000000000000000000000000000000000000000000000000000815260040161204f90614504565b60405180910390fd5b6000600e60008773ffffffffffffffffffffffffffffffffffffffff1673ffffffffffffffffffffffffffffffffffffffff16815260200190815260200160002085815481106120ab576120aa613b90565b5b906000526020600020906003020160405180606001604052908160008201548152602001600182015481526020016002820154815250509050806000015181602001518260400151935093509350509250925092565b60007f01ffc9a7000000000000000000000000000000000000000000000000000000007bffffffffffffffffffffffffffffffffffffffffffffffffffffffff1916827bffffffffffffffffffffffffffffffffffffffffffffffffffffffff1916149050919050565b6121748161292f565b6121b3576040517f08c379a00000000000000000000000000000000000000000000000000000000081526004016121aa90614208565b60405180910390fd5b50565b600033905090565b816004600083815260200190815260200160002060006101000a81548173ffffffffffffffffffffffffffffffffffffffff021916908373ffffffffffffffffffffffffffffffffffffffff160217905550808273ffffffffffffffffffffffffffffffffffffffff1661223183611470565b73ffffffffffffffffffffffffffffffffffffffff167f8c5be1e5ebec7d5bd14f71427d1e84f3dd0314c0f7b2291e5b200ac8c7c3b92560405160405180910390a45050565b6000818361228591906140b0565b905092915050565b6122a7828260405180602001604052806000815250612970565b5050565b6000806122b783611470565b90508073ffffffffffffffffffffffffffffffffffffffff168473ffffffffffffffffffffffffffffffffffffffff1614806122f957506122f88185611f3b565b5b8061233757508373ffffffffffffffffffffffffffffffffffffffff1661231f84610a67565b73ffffffffffffffffffffffffffffffffffffffff16145b91505092915050565b8273ffffffffffffffffffffffffffffffffffffffff1661236082611470565b73ffffffffffffffffffffffffffffffffffffffff16146123b6576040517f08c379a00000000000000000000000000000000000000000000000000000000081526004016123ad90614596565b60405180910390fd5b600073ffffffffffffffffffffffffffffffffffffffff168273ffffffffffffffffffffffffffffffffffffffff161415612426576040517f08c379a000000000000000000000000000000000000000000000000000000000815260040161241d90614628565b60405180910390fd5b61243383838360016129cb565b8273ffffffffffffffffffffffffffffffffffffffff1661245382611470565b73ffffffffffffffffffffffffffffffffffffffff16146124a9576040517f08c379a00000000000000000000000000000000000000000000000000000000081526004016124a090614596565b60405180910390fd5b6004600082815260200190815260200160002060006101000a81549073ffffffffffffffffffffffffffffffffffffffff02191690556001600360008573ffffffffffffffffffffffffffffffffffffffff1673ffffffffffffffffffffffffffffffffffffffff168152602001908152602001600020600082825403925050819055506001600360008473ffffffffffffffffffffffffffffffffffffffff1673ffffffffffffffffffffffffffffffffffffffff16815260200190815260200160002060008282540192505081905550816002600083815260200190815260200160002060006101000a81548173ffffffffffffffffffffffffffffffffffffffff021916908373ffffffffffffffffffffffffffffffffffffffff160217905550808273ffffffffffffffffffffffffffffffffffffffff168473ffffffffffffffffffffffffffffffffffffffff167fddf252ad1be2c89b69c2b068fc378daa952ba7f163c4a11628f55a4df523b3ef60405160405180910390a461263583838360016129d1565b505050565b60006002600083815260200190815260200160002060009054906101000a900473ffffffffffffffffffffffffffffffffffffffff169050919050565b8173ffffffffffffffffffffffffffffffffffffffff168373ffffffffffffffffffffffffffffffffffffffff1614156126e6576040517f08c379a00000000000000000000000000000000000000000000000000000000081526004016126dd90614694565b60405180910390fd5b80600560008573ffffffffffffffffffffffffffffffffffffffff1673ffffffffffffffffffffffffffffffffffffffff16815260200190815260200160002060008473ffffffffffffffffffffffffffffffffffffffff1673ffffffffffffffffffffffffffffffffffffffff16815260200190815260200160002060006101000a81548160ff0219169083151502179055508173ffffffffffffffffffffffffffffffffffffffff168373ffffffffffffffffffffffffffffffffffffffff167f17307eab39ab6107e8899845ad3d59bd9653f200f220920489ca2b5937696c31836040516127d791906130bf565b60405180910390a3505050565b6127ef848484612340565b6127fb848484846129d7565b61283a576040517f08c379a000000000000000000000000000000000000000000000000000000000815260040161283190614726565b60405180910390fd5b50505050565b606060405180602001604052806000815250905090565b60606000600161286684612b6e565b01905060008167ffffffffffffffff811115612885576128846136d8565b5b6040519080825280601f01601f1916602001820160405280156128b75781602001600182028036833780820191505090505b509050600082602001820190505b600115612924578080600190039150507f3031323334353637383961626364656600000000000000000000000000000000600a86061a8153600a858161290e5761290d614314565b5b049450600085141561291f57612924565b6128c5565b819350505050919050565b60008073ffffffffffffffffffffffffffffffffffffffff166129518361263a565b73ffffffffffffffffffffffffffffffffffffffff1614159050919050565b61297a8383612cc1565b61298760008484846129d7565b6129c6576040517f08c379a00000000000000000000000000000000000000000000000000000000081526004016129bd90614726565b60405180910390fd5b505050565b50505050565b50505050565b60006129f88473ffffffffffffffffffffffffffffffffffffffff16612edf565b15612b61578373ffffffffffffffffffffffffffffffffffffffff1663150b7a02612a216121b6565b8786866040518563ffffffff1660e01b8152600401612a43949392919061479b565b602060405180830381600087803b158015612a5d57600080fd5b505af1925050508015612a8e57506040513d601f19601f82011682018060405250810190612a8b91906147fc565b60015b612b11573d8060008114612abe576040519150601f19603f3d011682016040523d82523d6000602084013e612ac3565b606091505b50600081511415612b09576040517f08c379a0000000000000000000000000000000000000000000000000000000008152600401612b0090614726565b60405180910390fd5b805181602001fd5b63150b7a0260e01b7bffffffffffffffffffffffffffffffffffffffffffffffffffffffff1916817bffffffffffffffffffffffffffffffffffffffffffffffffffffffff191614915050612b66565b600190505b949350505050565b600080600090507a184f03e93ff9f4daa797ed6e38ed64bf6a1f0100000000000000008310612bcc577a184f03e93ff9f4daa797ed6e38ed64bf6a1f0100000000000000008381612bc257612bc1614314565b5b0492506040810190505b6d04ee2d6d415b85acef81000000008310612c09576d04ee2d6d415b85acef81000000008381612bff57612bfe614314565b5b0492506020810190505b662386f26fc100008310612c3857662386f26fc100008381612c2e57612c2d614314565b5b0492506010810190505b6305f5e1008310612c61576305f5e1008381612c5757612c56614314565b5b0492506008810190505b6127108310612c86576127108381612c7c57612c7b614314565b5b0492506004810190505b60648310612ca95760648381612c9f57612c9e614314565b5b0492506002810190505b600a8310612cb8576001810190505b80915050919050565b600073ffffffffffffffffffffffffffffffffffffffff168273ffffffffffffffffffffffffffffffffffffffff161415612d31576040517f08c379a0000000000000000000000000000000000000000000000000000000008152600401612d2890614875565b60405180910390fd5b612d3a8161292f565b15612d7a576040517f08c379a0000000000000000000000000000000000000000000000000000000008152600401612d71906148e1565b60405180910390fd5b612d886000838360016129cb565b612d918161292f565b15612dd1576040517f08c379a0000000000000000000000000000000000000000000000000000000008152600401612dc8906148e1565b60405180910390fd5b6001600360008473ffffffffffffffffffffffffffffffffffffffff1673ffffffffffffffffffffffffffffffffffffffff16815260200190815260200160002060008282540192505081905550816002600083815260200190815260200160002060006101000a81548173ffffffffffffffffffffffffffffffffffffffff021916908373ffffffffffffffffffffffffffffffffffffffff160217905550808273ffffffffffffffffffffffffffffffffffffffff16600073ffffffffffffffffffffffffffffffffffffffff167fddf252ad1be2c89b69c2b068fc378daa952ba7f163c4a11628f55a4df523b3ef60405160405180910390a4612edb6000838360016129d1565b5050565b6000808273ffffffffffffffffffffffffffffffffffffffff163b119050919050565b60405180606001604052806000815260200160008152602001600081525090565b60405180610100016040528060008152602001606081526020016000815260200160008152602001600081526020016060815260200160608152602001606081525090565b828054612f7490613c66565b90600052602060002090601f016020900481019282612f965760008555612fdd565b82601f10612faf57805160ff1916838001178555612fdd565b82800160010185558215612fdd579182015b82811115612fdc578251825591602001919060010190612fc1565b5b509050612fea9190612fee565b5090565b5b80821115613007576000816000905550600101612fef565b5090565b6000604051905090565b600080fd5b600080fd5b60007fffffffff0000000000000000000000000000000000000000000000000000000082169050919050565b6130548161301f565b811461305f57600080fd5b50565b6000813590506130718161304b565b92915050565b60006020828403121561308d5761308c613015565b5b600061309b84828501613062565b91505092915050565b60008115159050919050565b6130b9816130a4565b82525050565b60006020820190506130d460008301846130b0565b92915050565b600073ffffffffffffffffffffffffffffffffffffffff82169050919050565b6000613105826130da565b9050919050565b613115816130fa565b811461312057600080fd5b50565b6000813590506131328161310c565b92915050565b60006020828403121561314e5761314d613015565b5b600061315c84828501613123565b91505092915050565b600081519050919050565b600082825260208201905092915050565b6000819050602082019050919050565b6000819050919050565b6131a481613191565b82525050565b6060820160008201516131c0600085018261319b565b5060208201516131d3602085018261319b565b5060408201516131e6604085018261319b565b50505050565b60006131f883836131aa565b60608301905092915050565b6000602082019050919050565b600061321c82613165565b6132268185613170565b935061323183613181565b8060005b8381101561326257815161324988826131ec565b975061325483613204565b925050600181019050613235565b5085935050505092915050565b600060208201905081810360008301526132898184613211565b905092915050565b600081519050919050565b600082825260208201905092915050565b60005b838110156132cb5780820151818401526020810190506132b0565b838111156132da576000848401525b50505050565b6000601f19601f8301169050919050565b60006132fc82613291565b613306818561329c565b93506133168185602086016132ad565b61331f816132e0565b840191505092915050565b6000602082019050818103600083015261334481846132f1565b905092915050565b61335581613191565b811461336057600080fd5b50565b6000813590506133728161334c565b92915050565b60006020828403121561338e5761338d613015565b5b600061339c84828501613363565b91505092915050565b6133ae816130fa565b82525050565b60006020820190506133c960008301846133a5565b92915050565b600080604083850312156133e6576133e5613015565b5b60006133f485828601613123565b925050602061340585828601613363565b9150509250929050565b600081519050919050565b600082825260208201905092915050565b6000819050602082019050919050565b6000613447838361319b565b60208301905092915050565b6000602082019050919050565b600061346b8261340f565b613475818561341a565b93506134808361342b565b8060005b838110156134b1578151613498888261343b565b97506134a383613453565b925050600181019050613484565b5085935050505092915050565b600060208201905081810360008301526134d88184613460565b905092915050565b6134e981613191565b82525050565b600060208201905061350460008301846134e0565b92915050565b6000806040838503121561352157613520613015565b5b600061352f85828601613363565b925050602061354085828601613363565b9150509250929050565b60008060006060848603121561356357613562613015565b5b600061357186828701613123565b935050602061358286828701613123565b925050604061359386828701613363565b9150509250925092565b600082825260208201905092915050565b60006135b982613291565b6135c3818561359d565b93506135d38185602086016132ad565b6135dc816132e0565b840191505092915050565b600061010083016000830151613600600086018261319b565b506020830151848203602086015261361882826135ae565b915050604083015161362d604086018261319b565b506060830151613640606086018261319b565b506080830151613653608086018261319b565b5060a083015184820360a086015261366b82826135ae565b91505060c083015184820360c086015261368582826135ae565b91505060e083015184820360e086015261369f82826135ae565b9150508091505092915050565b600060208201905081810360008301526136c681846135e7565b905092915050565b600080fd5b600080fd5b7f4e487b7100000000000000000000000000000000000000000000000000000000600052604160045260246000fd5b613710826132e0565b810181811067ffffffffffffffff8211171561372f5761372e6136d8565b5b80604052505050565b600061374261300b565b905061374e8282613707565b919050565b600067ffffffffffffffff82111561376e5761376d6136d8565b5b613777826132e0565b9050602081019050919050565b82818337600083830152505050565b60006137a66137a184613753565b613738565b9050828152602081018484840111156137c2576137c16136d3565b5b6137cd848285613784565b509392505050565b600082601f8301126137ea576137e96136ce565b5b81356137fa848260208601613793565b91505092915050565b60006020828403121561381957613818613015565b5b600082013567ffffffffffffffff8111156138375761383661301a565b5b613843848285016137d5565b91505092915050565b60008060008060008060c0878903121561386957613868613015565b5b600087013567ffffffffffffffff8111156138875761388661301a565b5b61389389828a016137d5565b96505060206138a489828a01613363565b95505060406138b589828a01613363565b945050606087013567ffffffffffffffff8111156138d6576138d561301a565b5b6138e289828a016137d5565b935050608087013567ffffffffffffffff8111156139035761390261301a565b5b61390f89828a016137d5565b92505060a087013567ffffffffffffffff8111156139305761392f61301a565b5b61393c89828a016137d5565b9150509295509295509295565b600080604083850312156139605761395f613015565b5b600061396e85828601613363565b925050602061397f85828601613123565b9150509250929050565b613992816130a4565b811461399d57600080fd5b50565b6000813590506139af81613989565b92915050565b600080604083850312156139cc576139cb613015565b5b60006139da85828601613123565b92505060206139eb858286016139a0565b9150509250929050565b600067ffffffffffffffff821115613a1057613a0f6136d8565b5b613a19826132e0565b9050602081019050919050565b6000613a39613a34846139f5565b613738565b905082815260208101848484011115613a5557613a546136d3565b5b613a60848285613784565b509392505050565b600082601f830112613a7d57613a7c6136ce565b5b8135613a8d848260208601613a26565b91505092915050565b60008060008060808587031215613ab057613aaf613015565b5b6000613abe87828801613123565b9450506020613acf87828801613123565b9350506040613ae087828801613363565b925050606085013567ffffffffffffffff811115613b0157613b0061301a565b5b613b0d87828801613a68565b91505092959194509250565b6000606082019050613b2e60008301866134e0565b613b3b60208301856134e0565b613b4860408301846134e0565b949350505050565b60008060408385031215613b6757613b66613015565b5b6000613b7585828601613123565b9250506020613b8685828601613123565b9150509250929050565b7f4e487b7100000000000000000000000000000000000000000000000000000000600052603260045260246000fd5b7f4e487b7100000000000000000000000000000000000000000000000000000000600052601160045260246000fd5b6000613bf982613191565b91507fffffffffffffffffffffffffffffffffffffffffffffffffffffffffffffffff821415613c2c57613c2b613bbf565b5b600182019050919050565b7f4e487b7100000000000000000000000000000000000000000000000000000000600052602260045260246000fd5b60006002820490506001821680613c7e57607f821691505b60208210811415613c9257613c91613c37565b5b50919050565b7f4552433732313a20617070726f76616c20746f2063757272656e74206f776e6560008201527f7200000000000000000000000000000000000000000000000000000000000000602082015250565b6000613cf460218361329c565b9150613cff82613c98565b604082019050919050565b60006020820190508181036000830152613d2381613ce7565b9050919050565b7f4552433732313a20617070726f76652063616c6c6572206973206e6f7420746f60008201527f6b656e206f776e6572206f7220617070726f76656420666f7220616c6c000000602082015250565b6000613d86603d8361329c565b9150613d9182613d2a565b604082019050919050565b60006020820190508181036000830152613db581613d79565b9050919050565b7f496e76616c6964206f63636173696f6e20494400000000000000000000000000600082015250565b6000613df260138361329c565b9150613dfd82613dbc565b602082019050919050565b60006020820190508181036000830152613e2181613de5565b9050919050565b7f4f63636173696f6e204944206f7574206f662072616e67650000000000000000600082015250565b6000613e5e60188361329c565b9150613e6982613e28565b602082019050919050565b60006020820190508181036000830152613e8d81613e51565b9050919050565b7f496e76616c69642076616c75652073656e740000000000000000000000000000600082015250565b6000613eca60128361329c565b9150613ed582613e94565b602082019050919050565b60006020820190508181036000830152613ef981613ebd565b9050919050565b7f496e76616c696420646973636f756e7420636f75706f6e000000000000000000600082015250565b6000613f3660178361329c565b9150613f4182613f00565b602082019050919050565b60006020820190508181036000830152613f6581613f29565b9050919050565b7f496e73756666696369656e742066756e64730000000000000000000000000000600082015250565b6000613fa260128361329c565b9150613fad82613f6c565b602082019050919050565b60006020820190508181036000830152613fd181613f95565b9050919050565b7f5365617420616c72656164792074616b656e0000000000000000000000000000600082015250565b600061400e60128361329c565b915061401982613fd8565b602082019050919050565b6000602082019050818103600083015261403d81614001565b9050919050565b7f53656174206f7574206f662072616e6765000000000000000000000000000000600082015250565b600061407a60118361329c565b915061408582614044565b602082019050919050565b600060208201905081810360008301526140a98161406d565b9050919050565b60006140bb82613191565b91506140c683613191565b9250828210156140d9576140d8613bbf565b5b828203905092915050565b7f4552433732313a2063616c6c6572206973206e6f7420746f6b656e206f776e6560008201527f72206f7220617070726f76656400000000000000000000000000000000000000602082015250565b6000614140602d8361329c565b915061414b826140e4565b604082019050919050565b6000602082019050818103600083015261416f81614133565b9050919050565b600081905092915050565b50565b6000614191600083614176565b915061419c82614181565b600082019050919050565b60006141b282614184565b9150819050919050565b7f4552433732313a20696e76616c696420746f6b656e2049440000000000000000600082015250565b60006141f260188361329c565b91506141fd826141bc565b602082019050919050565b60006020820190508181036000830152614221816141e5565b9050919050565b7f4552433732313a2061646472657373207a65726f206973206e6f74206120766160008201527f6c6964206f776e65720000000000000000000000000000000000000000000000602082015250565b600061428460298361329c565b915061428f82614228565b604082019050919050565b600060208201905081810360008301526142b381614277565b9050919050565b60006142c582613191565b91506142d083613191565b9250817fffffffffffffffffffffffffffffffffffffffffffffffffffffffffffffffff048311821515161561430957614308613bbf565b5b828202905092915050565b7f4e487b7100000000000000000000000000000000000000000000000000000000600052601260045260246000fd5b600061434e82613191565b915061435983613191565b92508261436957614368614314565b5b828204905092915050565b7f446973636f756e7420636f75706f6e20616c7265616479206170706c69656400600082015250565b60006143aa601f8361329c565b91506143b582614374565b602082019050919050565b600060208201905081810360008301526143d98161439d565b9050919050565b600081905092915050565b7f4341524237373732363138000000000000000000000000000000000000000000600082015250565b6000614421600b836143e0565b915061442c826143eb565b600b82019050919050565b600061444282614414565b9150819050919050565b600061445782613291565b61446181856143e0565b93506144718185602086016132ad565b80840191505092915050565b6000614489828461444c565b915081905092915050565b60006144a0828561444c565b91506144ac828461444c565b91508190509392505050565b7f5469636b6574204944206f7574206f662072616e676500000000000000000000600082015250565b60006144ee60168361329c565b91506144f9826144b8565b602082019050919050565b6000602082019050818103600083015261451d816144e1565b9050919050565b7f4552433732313a207472616e736665722066726f6d20696e636f72726563742060008201527f6f776e6572000000000000000000000000000000000000000000000000000000602082015250565b600061458060258361329c565b915061458b82614524565b604082019050919050565b600060208201905081810360008301526145af81614573565b9050919050565b7f4552433732313a207472616e7366657220746f20746865207a65726f2061646460008201527f7265737300000000000000000000000000000000000000000000000000000000602082015250565b600061461260248361329c565b915061461d826145b6565b604082019050919050565b6000602082019050818103600083015261464181614605565b9050919050565b7f4552433732313a20617070726f766520746f2063616c6c657200000000000000600082015250565b600061467e60198361329c565b915061468982614648565b602082019050919050565b600060208201905081810360008301526146ad81614671565b9050919050565b7f4552433732313a207472616e7366657220746f206e6f6e20455243373231526560008201527f63656976657220696d706c656d656e7465720000000000000000000000000000602082015250565b600061471060328361329c565b915061471b826146b4565b604082019050919050565b6000602082019050818103600083015261473f81614703565b9050919050565b600081519050919050565b600082825260208201905092915050565b600061476d82614746565b6147778185614751565b93506147878185602086016132ad565b614790816132e0565b840191505092915050565b60006080820190506147b060008301876133a5565b6147bd60208301866133a5565b6147ca60408301856134e0565b81810360608301526147dc8184614762565b905095945050505050565b6000815190506147f68161304b565b92915050565b60006020828403121561481257614811613015565b5b6000614820848285016147e7565b91505092915050565b7f4552433732313a206d696e7420746f20746865207a65726f2061646472657373600082015250565b600061485f60208361329c565b915061486a82614829565b602082019050919050565b6000602082019050818103600083015261488e81614852565b9050919050565b7f4552433732313a20746f6b656e20616c7265616479206d696e74656400000000600082015250565b60006148cb601c8361329c565b91506148d682614895565b602082019050919050565b600060208201905081810360008301526148fa816148be565b905091905056fea264697066735822122056f4438f89ea968c383b4915cfe81e50c8dcd86484d16392a456733a05a0859864736f6c63430008090033",
  "linkReferences": {},
  "deployedLinkReferences": {}
}