{
  "_format": "hh-sol-artifact-1",
  "contractName": "TokenMaster",
  "sourceName": "contracts/TokenMaster.sol",
  "abi": [
    {
      "inputs": [
        {
          "internalType": "string",
          "name": "_name",
          "type": "string"
        },
        {
          "internalType": "string",
          "name": "_symbol",
          "type": "string"
        }
      ],
      "stateMutability": "nonpayable",
      "type": "constructor"
    },
    {
      "anonymous": false,
      "inputs": [
        {
          "indexed": true,
          "internalType": "address",
          "name": "owner",
          "type": "address"
        },
        {
          "indexed": true,
          "internalType": "address",
          "name": "approved",
          "type": "address"
        },
        {
          "indexed": true,
          "internalType": "uint256",
          "name": "tokenId",
          "type": "uint256"
        }
      ],
      "name": "Approval",
      "type": "event"
    },
    {
      "anonymous": false,
      "inputs": [
        {
          "indexed": true,
          "internalType": "address",
          "name": "owner",
          "type": "address"
        },
        {
          "indexed": true,
          "internalType": "address",
          "name": "operator",
          "type": "address"
        },
        {
          "indexed": false,
          "internalType": "bool",
          "name": "approved",
          "type": "bool"
        }
      ],
      "name": "ApprovalForAll",
      "type": "event"
    },
    {
      "anonymous": false,
      "inputs": [
        {
          "indexed": true,
          "internalType": "address",
          "name": "from",
          "type": "address"
        },
        {
          "indexed": true,
          "internalType": "address",
          "name": "to",
          "type": "address"
        },
        {
          "indexed": true,
          "internalType": "uint256",
          "name": "tokenId",
          "type": "uint256"
        }
      ],
      "name": "Transfer",
      "type": "event"
    },
    {
      "inputs": [
        {
          "internalType": "address",
          "name": "to",
          "type": "address"
        },
        {
          "internalType": "uint256",
          "name": "tokenId",
          "type": "uint256"
        }
      ],
      "name": "approve",
      "outputs": [],
      "stateMutability": "nonpayable",
      "type": "function"
    },
    {
      "inputs": [
        {
          "internalType": "address",
          "name": "owner",
          "type": "address"
        }
      ],
      "name": "balanceOf",
      "outputs": [
        {
          "internalType": "uint256",
          "name": "",
          "type": "uint256"
        }
      ],
      "stateMutability": "view",
      "type": "function"
    },
    {
      "inputs": [
        {
          "internalType": "uint256",
          "name": "tokenId",
          "type": "uint256"
        }
      ],
      "name": "getApproved",
      "outputs": [
        {
          "internalType": "address",
          "name": "",
          "type": "address"
        }
      ],
      "stateMutability": "view",
      "type": "function"
    },
    {
      "inputs": [
        {
          "internalType": "uint256",
          "name": "_id",
          "type": "uint256"
        }
      ],
      "name": "getOccasion",
      "outputs": [
        {
          "components": [
            {
              "internalType": "uint256",
              "name": "id",
              "type": "uint256"
            },
            {
              "internalType": "string",
              "name": "name",
              "type": "string"
            },
            {
              "internalType": "uint256",
              "name": "cost",
              "type": "uint256"
            },
            {
              "internalType": "uint256",
              "name": "tickets",
              "type": "uint256"
            },
            {
              "internalType": "uint256",
              "name": "maxTickets",
              "type": "uint256"
            },
            {
              "internalType": "string",
              "name": "date",
              "type": "string"
            },
            {
              "internalType": "string",
              "name": "time",
              "type": "string"
            },
            {
              "internalType": "string",
              "name": "location",
              "type": "string"
            }
          ],
          "internalType": "struct TokenMaster.Occasion",
          "name": "",
          "type": "tuple"
        }
      ],
      "stateMutability": "view",
      "type": "function"
    },
    {
      "inputs": [
        {
          "internalType": "uint256",
          "name": "_id",
          "type": "uint256"
        }
      ],
      "name": "getSeatsTaken",
      "outputs": [
        {
          "internalType": "uint256[]",
          "name": "",
          "type": "uint256[]"
        }
      ],
      "stateMutability": "view",
      "type": "function"
    },
    {
      "inputs": [
        {
          "internalType": "address",
          "name": "user",
          "type": "address"
        },
        {
          "internalType": "uint256",
          "name": "_ticketId",
          "type": "uint256"
        }
      ],
      "name": "getTicketDetails",
      "outputs": [
        {
          "internalType": "uint256",
          "name": "",
          "type": "uint256"
        },
        {
          "internalType": "uint256",
          "name": "",
          "type": "uint256"
        },
        {
          "internalType": "uint256",
          "name": "",
          "type": "uint256"
        }
      ],
      "stateMutability": "view",
      "type": "function"
    },
    {
      "inputs": [
        {
          "internalType": "address",
          "name": "user",
          "type": "address"
        }
      ],
      "name": "getUserTickets",
      "outputs": [
        {
          "components": [
            {
              "internalType": "uint256",
              "name": "id",
              "type": "uint256"
            },
            {
              "internalType": "uint256",
              "name": "occasionId",
              "type": "uint256"
            },
            {
              "internalType": "uint256",
              "name": "seat",
              "type": "uint256"
            }
          ],
          "internalType": "struct TokenMaster.Ticket[]",
          "name": "",
          "type": "tuple[]"
        }
      ],
      "stateMutability": "view",
      "type": "function"
    },
    {
      "inputs": [
        {
          "internalType": "uint256",
          "name": "",
          "type": "uint256"
        },
        {
          "internalType": "address",
          "name": "",
          "type": "address"
        }
      ],
      "name": "hasBought",
      "outputs": [
        {
          "internalType": "bool",
          "name": "",
          "type": "bool"
        }
      ],
      "stateMutability": "view",
      "type": "function"
    },
    {
      "inputs": [
        {
          "internalType": "address",
          "name": "owner",
          "type": "address"
        },
        {
          "internalType": "address",
          "name": "operator",
          "type": "address"
        }
      ],
      "name": "isApprovedForAll",
      "outputs": [
        {
          "internalType": "bool",
          "name": "",
          "type": "bool"
        }
      ],
      "stateMutability": "view",
      "type": "function"
    },
    {
      "inputs": [
        {
          "internalType": "string",
          "name": "_name",
          "type": "string"
        },
        {
          "internalType": "uint256",
          "name": "_cost",
          "type": "uint256"
        },
        {
          "internalType": "uint256",
          "name": "_maxTickets",
          "type": "uint256"
        },
        {
          "internalType": "string",
          "name": "_date",
          "type": "string"
        },
        {
          "internalType": "string",
          "name": "_time",
          "type": "string"
        },
        {
          "internalType": "string",
          "name": "_location",
          "type": "string"
        }
      ],
      "name": "list",
      "outputs": [],
      "stateMutability": "nonpayable",
      "type": "function"
    },
    {
      "inputs": [
        {
          "internalType": "uint256",
          "name": "_id",
          "type": "uint256"
        },
        {
          "internalType": "uint256",
          "name": "_seat",
          "type": "uint256"
        }
      ],
      "name": "mint",
      "outputs": [],
      "stateMutability": "payable",
      "type": "function"
    },
    {
      "inputs": [],
      "name": "name",
      "outputs": [
        {
          "internalType": "string",
          "name": "",
          "type": "string"
        }
      ],
      "stateMutability": "view",
      "type": "function"
    },
    {
      "inputs": [],
      "name": "owner",
      "outputs": [
        {
          "internalType": "address",
          "name": "",
          "type": "address"
        }
      ],
      "stateMutability": "view",
      "type": "function"
    },
    {
      "inputs": [
        {
          "internalType": "uint256",
          "name": "tokenId",
          "type": "uint256"
        }
      ],
      "name": "ownerOf",
      "outputs": [
        {
          "internalType": "address",
          "name": "",
          "type": "address"
        }
      ],
      "stateMutability": "view",
      "type": "function"
    },
    {
      "inputs": [
        {
          "internalType": "address",
          "name": "from",
          "type": "address"
        },
        {
          "internalType": "address",
          "name": "to",
          "type": "address"
        },
        {
          "internalType": "uint256",
          "name": "tokenId",
          "type": "uint256"
        }
      ],
      "name": "safeTransferFrom",
      "outputs": [],
      "stateMutability": "nonpayable",
      "type": "function"
    },
    {
      "inputs": [
        {
          "internalType": "address",
          "name": "from",
          "type": "address"
        },
        {
          "internalType": "address",
          "name": "to",
          "type": "address"
        },
        {
          "internalType": "uint256",
          "name": "tokenId",
          "type": "uint256"
        },
        {
          "internalType": "bytes",
          "name": "data",
          "type": "bytes"
        }
      ],
      "name": "safeTransferFrom",
      "outputs": [],
      "stateMutability": "nonpayable",
      "type": "function"
    },
    {
      "inputs": [
        {
          "internalType": "uint256",
          "name": "",
          "type": "uint256"
        },
        {
          "internalType": "uint256",
          "name": "",
          "type": "uint256"
        }
      ],
      "name": "seatTaken",
      "outputs": [
        {
          "internalType": "address",
          "name": "",
          "type": "address"
        }
      ],
      "stateMutability": "view",
      "type": "function"
    },
    {
      "inputs": [
        {
          "internalType": "address",
          "name": "operator",
          "type": "address"
        },
        {
          "internalType": "bool",
          "name": "approved",
          "type": "bool"
        }
      ],
      "name": "setApprovalForAll",
      "outputs": [],
      "stateMutability": "nonpayable",
      "type": "function"
    },
    {
      "inputs": [
        {
          "internalType": "bytes4",
          "name": "interfaceId",
          "type": "bytes4"
        }
      ],
      "name": "supportsInterface",
      "outputs": [
        {
          "internalType": "bool",
          "name": "",
          "type": "bool"
        }
      ],
      "stateMutability": "view",
      "type": "function"
    },
    {
      "inputs": [],
      "name": "symbol",
      "outputs": [
        {
          "internalType": "string",
          "name": "",
          "type": "string"
        }
      ],
      "stateMutability": "view",
      "type": "function"
    },
    {
      "inputs": [
        {
          "internalType": "uint256",
          "name": "tokenId",
          "type": "uint256"
        }
      ],
      "name": "tokenURI",
      "outputs": [
        {
          "internalType": "string",
          "name": "",
          "type": "string"
        }
      ],
      "stateMutability": "view",
      "type": "function"
    },
    {
      "inputs": [],
      "name": "totalOccasions",
      "outputs": [
        {
          "internalType": "uint256",
          "name": "",
          "type": "uint256"
        }
      ],
      "stateMutability": "view",
      "type": "function"
    },
    {
      "inputs": [],
      "name": "totalSupply",
      "outputs": [
        {
          "internalType": "uint256",
          "name": "",
          "type": "uint256"
        }
      ],
      "stateMutability": "view",
      "type": "function"
    },
    {
      "inputs": [
        {
          "internalType": "address",
          "name": "from",
          "type": "address"
        },
        {
          "internalType": "address",
          "name": "to",
          "type": "address"
        },
        {
          "internalType": "uint256",
          "name": "tokenId",
          "type": "uint256"
        }
      ],
      "name": "transferFrom",
      "outputs": [],
      "stateMutability": "nonpayable",
      "type": "function"
    },
    {
      "inputs": [
        {
          "internalType": "address",
          "name": "",
          "type": "address"
        },
        {
          "internalType": "uint256",
          "name": "",
          "type": "uint256"
        }
      ],
      "name": "userTickets",
      "outputs": [
        {
          "internalType": "uint256",
          "name": "id",
          "type": "uint256"
        },
        {
          "internalType": "uint256",
          "name": "occasionId",
          "type": "uint256"
        },
        {
          "internalType": "uint256",
          "name": "seat",
          "type": "uint256"
        }
      ],
      "stateMutability": "view",
      "type": "function"
    },
    {
      "inputs": [],
      "name": "withdraw",
      "outputs": [],
      "stateMutability": "nonpayable",
      "type": "function"
    }
  ],
  "bytecode": "0x60806040523480156200001157600080fd5b506040516200404c3803806200404c833981810160405281019062000037919062000303565b8181816000908051906020019062000051929190620000b6565b5080600190805190602001906200006a929190620000b6565b50505033600660006101000a81548173ffffffffffffffffffffffffffffffffffffffff021916908373ffffffffffffffffffffffffffffffffffffffff1602179055505050620003ed565b828054620000c490620003b7565b90600052602060002090601f016020900481019282620000e8576000855562000134565b82601f106200010357805160ff191683800117855562000134565b8280016001018555821562000134579182015b828111156200013357825182559160200191906001019062000116565b5b50905062000143919062000147565b5090565b5b808211156200016257600081600090555060010162000148565b5090565b6000604051905090565b600080fd5b600080fd5b600080fd5b600080fd5b6000601f19601f8301169050919050565b7f4e487b7100000000000000000000000000000000000000000000000000000000600052604160045260246000fd5b620001cf8262000184565b810181811067ffffffffffffffff82111715620001f157620001f062000195565b5b80604052505050565b60006200020662000166565b9050620002148282620001c4565b919050565b600067ffffffffffffffff82111562000237576200023662000195565b5b620002428262000184565b9050602081019050919050565b60005b838110156200026f57808201518184015260208101905062000252565b838111156200027f576000848401525b50505050565b60006200029c620002968462000219565b620001fa565b905082815260208101848484011115620002bb57620002ba6200017f565b5b620002c88482856200024f565b509392505050565b600082601f830112620002e857620002e76200017a565b5b8151620002fa84826020860162000285565b91505092915050565b600080604083850312156200031d576200031c62000170565b5b600083015167ffffffffffffffff8111156200033e576200033d62000175565b5b6200034c85828601620002d0565b925050602083015167ffffffffffffffff81111562000370576200036f62000175565b5b6200037e85828601620002d0565b9150509250929050565b7f4e487b7100000000000000000000000000000000000000000000000000000000600052602260045260246000fd5b60006002820490506001821680620003d057607f821691505b60208210811415620003e757620003e662000388565b5b50919050565b613c4f80620003fd6000396000f3fe6080604052600436106101815760003560e01c806374bc8656116100d1578063a22cb4651161008a578063c87b56dd11610064578063c87b56dd146105ab578063cf260baf146105e8578063e985e9c514610627578063ed9a2ea31461066457610181565b8063a22cb4651461051c578063af296da114610545578063b88d4fde1461058257610181565b806374bc8656146103f85780638da5cb5b14610435578063953865c11461046057806395d89b411461048b5780639a382f0f146104b65780639cb04aef146104df57610181565b806318160ddd1161013e5780633ccfd60b116101185780633ccfd60b1461033e57806342842e0e146103555780636352211e1461037e57806370a08231146103bb57610181565b806318160ddd146102ce5780631b2ef1ca146102f957806323b872dd1461031557610181565b806301ffc9a7146101865780630484a22f146101c357806306fdde0314610200578063081812fc1461022b578063095ea7b3146102685780630ef7ec7414610291575b600080fd5b34801561019257600080fd5b506101ad60048036038101906101a8919061283b565b6106a3565b6040516101ba9190612883565b60405180910390f35b3480156101cf57600080fd5b506101ea60048036038101906101e591906128fc565b610785565b6040516101f79190612a33565b60405180910390f35b34801561020c57600080fd5b506102156108bb565b6040516102229190612aee565b60405180910390f35b34801561023757600080fd5b50610252600480360381019061024d9190612b3c565b61094d565b60405161025f9190612b78565b60405180910390f35b34801561027457600080fd5b5061028f600480360381019061028a9190612b93565b610993565b005b34801561029d57600080fd5b506102b860048036038101906102b39190612b3c565b610aab565b6040516102c59190612c82565b60405180910390f35b3480156102da57600080fd5b506102e3610b16565b6040516102f09190612cb3565b60405180910390f35b610313600480360381019061030e9190612cce565b610b1c565b005b34801561032157600080fd5b5061033c60048036038101906103379190612d0e565b610e03565b005b34801561034a57600080fd5b50610353610e63565b005b34801561036157600080fd5b5061037c60048036038101906103779190612d0e565b610f58565b005b34801561038a57600080fd5b506103a560048036038101906103a09190612b3c565b610f78565b6040516103b29190612b78565b60405180910390f35b3480156103c757600080fd5b506103e260048036038101906103dd91906128fc565b610fff565b6040516103ef9190612cb3565b60405180910390f35b34801561040457600080fd5b5061041f600480360381019061041a9190612b3c565b6110b7565b60405161042c9190612e70565b60405180910390f35b34801561044157600080fd5b5061044a611355565b6040516104579190612b78565b60405180910390f35b34801561046c57600080fd5b5061047561137b565b6040516104829190612cb3565b60405180910390f35b34801561049757600080fd5b506104a0611381565b6040516104ad9190612aee565b60405180910390f35b3480156104c257600080fd5b506104dd60048036038101906104d89190612fc7565b611413565b005b3480156104eb57600080fd5b50610506600480360381019061050191906130c4565b61157d565b6040516105139190612883565b60405180910390f35b34801561052857600080fd5b50610543600480360381019061053e9190613130565b6115ac565b005b34801561055157600080fd5b5061056c60048036038101906105679190612cce565b6115c2565b6040516105799190612b78565b60405180910390f35b34801561058e57600080fd5b506105a960048036038101906105a49190613211565b611604565b005b3480156105b757600080fd5b506105d260048036038101906105cd9190612b3c565b611666565b6040516105df9190612aee565b60405180910390f35b3480156105f457600080fd5b5061060f600480360381019061060a9190612b93565b6116ce565b60405161061e93929190613294565b60405180910390f35b34801561063357600080fd5b5061064e600480360381019061064991906132cb565b611715565b60405161065b9190612883565b60405180910390f35b34801561067057600080fd5b5061068b60048036038101906106869190612b93565b6117a9565b60405161069a93929190613294565b60405180910390f35b60007f80ac58cd000000000000000000000000000000000000000000000000000000007bffffffffffffffffffffffffffffffffffffffffffffffffffffffff1916827bffffffffffffffffffffffffffffffffffffffffffffffffffffffff1916148061076e57507f5b5e139f000000000000000000000000000000000000000000000000000000007bffffffffffffffffffffffffffffffffffffffffffffffffffffffff1916827bffffffffffffffffffffffffffffffffffffffffffffffffffffffff1916145b8061077e575061077d826118db565b5b9050919050565b60606000600d60008473ffffffffffffffffffffffffffffffffffffffff1673ffffffffffffffffffffffffffffffffffffffff16815260200190815260200160002090506000818054905067ffffffffffffffff8111156107ea576107e9612e9c565b5b60405190808252806020026020018201604052801561082357816020015b6108106126c6565b8152602001906001900390816108085790505b50905060005b82805490508110156108b0578281815481106108485761084761330b565b5b906000526020600020906003020160405180606001604052908160008201548152602001600182015481526020016002820154815250508282815181106108925761089161330b565b5b602002602001018190525080806108a890613369565b915050610829565b508092505050919050565b6060600080546108ca906133e1565b80601f01602080910402602001604051908101604052809291908181526020018280546108f6906133e1565b80156109435780601f1061091857610100808354040283529160200191610943565b820191906000526020600020905b81548152906001019060200180831161092657829003601f168201915b5050505050905090565b600061095882611945565b6004600083815260200190815260200160002060009054906101000a900473ffffffffffffffffffffffffffffffffffffffff169050919050565b600061099e82610f78565b90508073ffffffffffffffffffffffffffffffffffffffff168373ffffffffffffffffffffffffffffffffffffffff161415610a0f576040517f08c379a0000000000000000000000000000000000000000000000000000000008152600401610a0690613485565b60405180910390fd5b8073ffffffffffffffffffffffffffffffffffffffff16610a2e611990565b73ffffffffffffffffffffffffffffffffffffffff161480610a5d5750610a5c81610a57611990565b611715565b5b610a9c576040517f08c379a0000000000000000000000000000000000000000000000000000000008152600401610a9390613517565b60405180910390fd5b610aa68383611998565b505050565b6060600c6000838152602001908152602001600020805480602002602001604051908101604052809291908181526020018280548015610b0a57602002820191906000526020600020905b815481526020019060010190808311610af6575b50505050509050919050565b60085481565b6000821415610b2a57600080fd5b600754821115610b3957600080fd5b6009600083815260200190815260200160002060020154341015610b5c57600080fd5b600073ffffffffffffffffffffffffffffffffffffffff16600b6000848152602001908152602001600020600083815260200190815260200160002060009054906101000a900473ffffffffffffffffffffffffffffffffffffffff1673ffffffffffffffffffffffffffffffffffffffff1614610bd957600080fd5b6009600083815260200190815260200160002060040154811115610bfc57600080fd5b6001600960008481526020019081526020016000206003016000828254610c239190613537565b925050819055506001600a600084815260200190815260200160002060003373ffffffffffffffffffffffffffffffffffffffff1673ffffffffffffffffffffffffffffffffffffffff16815260200190815260200160002060006101000a81548160ff02191690831515021790555033600b6000848152602001908152602001600020600083815260200190815260200160002060006101000a81548173ffffffffffffffffffffffffffffffffffffffff021916908373ffffffffffffffffffffffffffffffffffffffff160217905550600c600083815260200190815260200160002081908060018154018082558091505060019003906000526020600020016000909190919091505560086000815480929190610d4390613369565b9190505550600060405180606001604052806008548152602001848152602001838152509050600d60003373ffffffffffffffffffffffffffffffffffffffff1673ffffffffffffffffffffffffffffffffffffffff1681526020019081526020016000208190806001815401808255809150506001900390600052602060002090600302016000909190919091506000820151816000015560208201518160010155604082015181600201555050610dfe33600854611a51565b505050565b610e14610e0e611990565b82611a6f565b610e53576040517f08c379a0000000000000000000000000000000000000000000000000000000008152600401610e4a906135dd565b60405180910390fd5b610e5e838383611b04565b505050565b600660009054906101000a900473ffffffffffffffffffffffffffffffffffffffff1673ffffffffffffffffffffffffffffffffffffffff163373ffffffffffffffffffffffffffffffffffffffff1614610ebd57600080fd5b6000600660009054906101000a900473ffffffffffffffffffffffffffffffffffffffff1673ffffffffffffffffffffffffffffffffffffffff1647604051610f059061362e565b60006040518083038185875af1925050503d8060008114610f42576040519150601f19603f3d011682016040523d82523d6000602084013e610f47565b606091505b5050905080610f5557600080fd5b50565b610f7383838360405180602001604052806000815250611604565b505050565b600080610f8483611dfe565b9050600073ffffffffffffffffffffffffffffffffffffffff168173ffffffffffffffffffffffffffffffffffffffff161415610ff6576040517f08c379a0000000000000000000000000000000000000000000000000000000008152600401610fed9061368f565b60405180910390fd5b80915050919050565b60008073ffffffffffffffffffffffffffffffffffffffff168273ffffffffffffffffffffffffffffffffffffffff161415611070576040517f08c379a000000000000000000000000000000000000000000000000000000000815260040161106790613721565b60405180910390fd5b600360008373ffffffffffffffffffffffffffffffffffffffff1673ffffffffffffffffffffffffffffffffffffffff168152602001908152602001600020549050919050565b6110bf6126e7565b6009600083815260200190815260200160002060405180610100016040529081600082015481526020016001820180546110f8906133e1565b80601f0160208091040260200160405190810160405280929190818152602001828054611124906133e1565b80156111715780601f1061114657610100808354040283529160200191611171565b820191906000526020600020905b81548152906001019060200180831161115457829003601f168201915b505050505081526020016002820154815260200160038201548152602001600482015481526020016005820180546111a8906133e1565b80601f01602080910402602001604051908101604052809291908181526020018280546111d4906133e1565b80156112215780601f106111f657610100808354040283529160200191611221565b820191906000526020600020905b81548152906001019060200180831161120457829003601f168201915b5050505050815260200160068201805461123a906133e1565b80601f0160208091040260200160405190810160405280929190818152602001828054611266906133e1565b80156112b35780601f10611288576101008083540402835291602001916112b3565b820191906000526020600020905b81548152906001019060200180831161129657829003601f168201915b505050505081526020016007820180546112cc906133e1565b80601f01602080910402602001604051908101604052809291908181526020018280546112f8906133e1565b80156113455780601f1061131a57610100808354040283529160200191611345565b820191906000526020600020905b81548152906001019060200180831161132857829003601f168201915b5050505050815250509050919050565b600660009054906101000a900473ffffffffffffffffffffffffffffffffffffffff1681565b60075481565b606060018054611390906133e1565b80601f01602080910402602001604051908101604052809291908181526020018280546113bc906133e1565b80156114095780601f106113de57610100808354040283529160200191611409565b820191906000526020600020905b8154815290600101906020018083116113ec57829003601f168201915b5050505050905090565b600660009054906101000a900473ffffffffffffffffffffffffffffffffffffffff1673ffffffffffffffffffffffffffffffffffffffff163373ffffffffffffffffffffffffffffffffffffffff161461146d57600080fd5b6007600081548092919061148090613369565b91905055506040518061010001604052806007548152602001878152602001868152602001858152602001858152602001848152602001838152602001828152506009600060075481526020019081526020016000206000820151816000015560208201518160010190805190602001906114fc92919061272c565b5060408201518160020155606082015181600301556080820151816004015560a082015181600501908051906020019061153792919061272c565b5060c082015181600601908051906020019061155492919061272c565b5060e082015181600701908051906020019061157192919061272c565b50905050505050505050565b600a6020528160005260406000206020528060005260406000206000915091509054906101000a900460ff1681565b6115be6115b7611990565b8383611e3b565b5050565b600b6020528160005260406000206020528060005260406000206000915091509054906101000a900473ffffffffffffffffffffffffffffffffffffffff1681565b61161561160f611990565b83611a6f565b611654576040517f08c379a000000000000000000000000000000000000000000000000000000000815260040161164b906135dd565b60405180910390fd5b61166084848484611fa8565b50505050565b606061167182611945565b600061167b612004565b9050600081511161169b57604051806020016040528060008152506116c6565b806116a58461201b565b6040516020016116b692919061377d565b6040516020818303038152906040525b915050919050565b600d60205281600052604060002081815481106116ea57600080fd5b9060005260206000209060030201600091509150508060000154908060010154908060020154905083565b6000600560008473ffffffffffffffffffffffffffffffffffffffff1673ffffffffffffffffffffffffffffffffffffffff16815260200190815260200160002060008373ffffffffffffffffffffffffffffffffffffffff1673ffffffffffffffffffffffffffffffffffffffff16815260200190815260200160002060009054906101000a900460ff16905092915050565b6000806000600d60008673ffffffffffffffffffffffffffffffffffffffff1673ffffffffffffffffffffffffffffffffffffffff168152602001908152602001600020805490508410611832576040517f08c379a0000000000000000000000000000000000000000000000000000000008152600401611829906137ed565b60405180910390fd5b6000600d60008773ffffffffffffffffffffffffffffffffffffffff1673ffffffffffffffffffffffffffffffffffffffff16815260200190815260200160002085815481106118855761188461330b565b5b906000526020600020906003020160405180606001604052908160008201548152602001600182015481526020016002820154815250509050806000015181602001518260400151935093509350509250925092565b60007f01ffc9a7000000000000000000000000000000000000000000000000000000007bffffffffffffffffffffffffffffffffffffffffffffffffffffffff1916827bffffffffffffffffffffffffffffffffffffffffffffffffffffffff1916149050919050565b61194e816120f3565b61198d576040517f08c379a00000000000000000000000000000000000000000000000000000000081526004016119849061368f565b60405180910390fd5b50565b600033905090565b816004600083815260200190815260200160002060006101000a81548173ffffffffffffffffffffffffffffffffffffffff021916908373ffffffffffffffffffffffffffffffffffffffff160217905550808273ffffffffffffffffffffffffffffffffffffffff16611a0b83610f78565b73ffffffffffffffffffffffffffffffffffffffff167f8c5be1e5ebec7d5bd14f71427d1e84f3dd0314c0f7b2291e5b200ac8c7c3b92560405160405180910390a45050565b611a6b828260405180602001604052806000815250612134565b5050565b600080611a7b83610f78565b90508073ffffffffffffffffffffffffffffffffffffffff168473ffffffffffffffffffffffffffffffffffffffff161480611abd5750611abc8185611715565b5b80611afb57508373ffffffffffffffffffffffffffffffffffffffff16611ae38461094d565b73ffffffffffffffffffffffffffffffffffffffff16145b91505092915050565b8273ffffffffffffffffffffffffffffffffffffffff16611b2482610f78565b73ffffffffffffffffffffffffffffffffffffffff1614611b7a576040517f08c379a0000000000000000000000000000000000000000000000000000000008152600401611b719061387f565b60405180910390fd5b600073ffffffffffffffffffffffffffffffffffffffff168273ffffffffffffffffffffffffffffffffffffffff161415611bea576040517f08c379a0000000000000000000000000000000000000000000000000000000008152600401611be190613911565b60405180910390fd5b611bf7838383600161218f565b8273ffffffffffffffffffffffffffffffffffffffff16611c1782610f78565b73ffffffffffffffffffffffffffffffffffffffff1614611c6d576040517f08c379a0000000000000000000000000000000000000000000000000000000008152600401611c649061387f565b60405180910390fd5b6004600082815260200190815260200160002060006101000a81549073ffffffffffffffffffffffffffffffffffffffff02191690556001600360008573ffffffffffffffffffffffffffffffffffffffff1673ffffffffffffffffffffffffffffffffffffffff168152602001908152602001600020600082825403925050819055506001600360008473ffffffffffffffffffffffffffffffffffffffff1673ffffffffffffffffffffffffffffffffffffffff16815260200190815260200160002060008282540192505081905550816002600083815260200190815260200160002060006101000a81548173ffffffffffffffffffffffffffffffffffffffff021916908373ffffffffffffffffffffffffffffffffffffffff160217905550808273ffffffffffffffffffffffffffffffffffffffff168473ffffffffffffffffffffffffffffffffffffffff167fddf252ad1be2c89b69c2b068fc378daa952ba7f163c4a11628f55a4df523b3ef60405160405180910390a4611df98383836001612195565b505050565b60006002600083815260200190815260200160002060009054906101000a900473ffffffffffffffffffffffffffffffffffffffff169050919050565b8173ffffffffffffffffffffffffffffffffffffffff168373ffffffffffffffffffffffffffffffffffffffff161415611eaa576040517f08c379a0000000000000000000000000000000000000000000000000000000008152600401611ea19061397d565b60405180910390fd5b80600560008573ffffffffffffffffffffffffffffffffffffffff1673ffffffffffffffffffffffffffffffffffffffff16815260200190815260200160002060008473ffffffffffffffffffffffffffffffffffffffff1673ffffffffffffffffffffffffffffffffffffffff16815260200190815260200160002060006101000a81548160ff0219169083151502179055508173ffffffffffffffffffffffffffffffffffffffff168373ffffffffffffffffffffffffffffffffffffffff167f17307eab39ab6107e8899845ad3d59bd9653f200f220920489ca2b5937696c3183604051611f9b9190612883565b60405180910390a3505050565b611fb3848484611b04565b611fbf8484848461219b565b611ffe576040517f08c379a0000000000000000000000000000000000000000000000000000000008152600401611ff590613a0f565b60405180910390fd5b50505050565b606060405180602001604052806000815250905090565b60606000600161202a84612332565b01905060008167ffffffffffffffff81111561204957612048612e9c565b5b6040519080825280601f01601f19166020018201604052801561207b5781602001600182028036833780820191505090505b509050600082602001820190505b6001156120e8578080600190039150507f3031323334353637383961626364656600000000000000000000000000000000600a86061a8153600a85816120d2576120d1613a2f565b5b04945060008514156120e3576120e8565b612089565b819350505050919050565b60008073ffffffffffffffffffffffffffffffffffffffff1661211583611dfe565b73ffffffffffffffffffffffffffffffffffffffff1614159050919050565b61213e8383612485565b61214b600084848461219b565b61218a576040517f08c379a000000000000000000000000000000000000000000000000000000000815260040161218190613a0f565b60405180910390fd5b505050565b50505050565b50505050565b60006121bc8473ffffffffffffffffffffffffffffffffffffffff166126a3565b15612325578373ffffffffffffffffffffffffffffffffffffffff1663150b7a026121e5611990565b8786866040518563ffffffff1660e01b81526004016122079493929190613ab3565b602060405180830381600087803b15801561222157600080fd5b505af192505050801561225257506040513d601f19601f8201168201806040525081019061224f9190613b14565b60015b6122d5573d8060008114612282576040519150601f19603f3d011682016040523d82523d6000602084013e612287565b606091505b506000815114156122cd576040517f08c379a00000000000000000000000000000000000000000000000000000000081526004016122c490613a0f565b60405180910390fd5b805181602001fd5b63150b7a0260e01b7bffffffffffffffffffffffffffffffffffffffffffffffffffffffff1916817bffffffffffffffffffffffffffffffffffffffffffffffffffffffff19161491505061232a565b600190505b949350505050565b600080600090507a184f03e93ff9f4daa797ed6e38ed64bf6a1f0100000000000000008310612390577a184f03e93ff9f4daa797ed6e38ed64bf6a1f010000000000000000838161238657612385613a2f565b5b0492506040810190505b6d04ee2d6d415b85acef810000000083106123cd576d04ee2d6d415b85acef810000000083816123c3576123c2613a2f565b5b0492506020810190505b662386f26fc1000083106123fc57662386f26fc1000083816123f2576123f1613a2f565b5b0492506010810190505b6305f5e1008310612425576305f5e100838161241b5761241a613a2f565b5b0492506008810190505b612710831061244a5761271083816124405761243f613a2f565b5b0492506004810190505b6064831061246d576064838161246357612462613a2f565b5b0492506002810190505b600a831061247c576001810190505b80915050919050565b600073ffffffffffffffffffffffffffffffffffffffff168273ffffffffffffffffffffffffffffffffffffffff1614156124f5576040517f08c379a00000000000000000000000000000000000000000000000000000000081526004016124ec90613b8d565b60405180910390fd5b6124fe816120f3565b1561253e576040517f08c379a000000000000000000000000000000000000000000000000000000000815260040161253590613bf9565b60405180910390fd5b61254c60008383600161218f565b612555816120f3565b15612595576040517f08c379a000000000000000000000000000000000000000000000000000000000815260040161258c90613bf9565b60405180910390fd5b6001600360008473ffffffffffffffffffffffffffffffffffffffff1673ffffffffffffffffffffffffffffffffffffffff16815260200190815260200160002060008282540192505081905550816002600083815260200190815260200160002060006101000a81548173ffffffffffffffffffffffffffffffffffffffff021916908373ffffffffffffffffffffffffffffffffffffffff160217905550808273ffffffffffffffffffffffffffffffffffffffff16600073ffffffffffffffffffffffffffffffffffffffff167fddf252ad1be2c89b69c2b068fc378daa952ba7f163c4a11628f55a4df523b3ef60405160405180910390a461269f600083836001612195565b5050565b6000808273ffffffffffffffffffffffffffffffffffffffff163b119050919050565b60405180606001604052806000815260200160008152602001600081525090565b60405180610100016040528060008152602001606081526020016000815260200160008152602001600081526020016060815260200160608152602001606081525090565b828054612738906133e1565b90600052602060002090601f01602090048101928261275a57600085556127a1565b82601f1061277357805160ff19168380011785556127a1565b828001600101855582156127a1579182015b828111156127a0578251825591602001919060010190612785565b5b5090506127ae91906127b2565b5090565b5b808211156127cb5760008160009055506001016127b3565b5090565b6000604051905090565b600080fd5b600080fd5b60007fffffffff0000000000000000000000000000000000000000000000000000000082169050919050565b612818816127e3565b811461282357600080fd5b50565b6000813590506128358161280f565b92915050565b600060208284031215612851576128506127d9565b5b600061285f84828501612826565b91505092915050565b60008115159050919050565b61287d81612868565b82525050565b60006020820190506128986000830184612874565b92915050565b600073ffffffffffffffffffffffffffffffffffffffff82169050919050565b60006128c98261289e565b9050919050565b6128d9816128be565b81146128e457600080fd5b50565b6000813590506128f6816128d0565b92915050565b600060208284031215612912576129116127d9565b5b6000612920848285016128e7565b91505092915050565b600081519050919050565b600082825260208201905092915050565b6000819050602082019050919050565b6000819050919050565b61296881612955565b82525050565b606082016000820151612984600085018261295f565b506020820151612997602085018261295f565b5060408201516129aa604085018261295f565b50505050565b60006129bc838361296e565b60608301905092915050565b6000602082019050919050565b60006129e082612929565b6129ea8185612934565b93506129f583612945565b8060005b83811015612a26578151612a0d88826129b0565b9750612a18836129c8565b9250506001810190506129f9565b5085935050505092915050565b60006020820190508181036000830152612a4d81846129d5565b905092915050565b600081519050919050565b600082825260208201905092915050565b60005b83811015612a8f578082015181840152602081019050612a74565b83811115612a9e576000848401525b50505050565b6000601f19601f8301169050919050565b6000612ac082612a55565b612aca8185612a60565b9350612ada818560208601612a71565b612ae381612aa4565b840191505092915050565b60006020820190508181036000830152612b088184612ab5565b905092915050565b612b1981612955565b8114612b2457600080fd5b50565b600081359050612b3681612b10565b92915050565b600060208284031215612b5257612b516127d9565b5b6000612b6084828501612b27565b91505092915050565b612b72816128be565b82525050565b6000602082019050612b8d6000830184612b69565b92915050565b60008060408385031215612baa57612ba96127d9565b5b6000612bb8858286016128e7565b9250506020612bc985828601612b27565b9150509250929050565b600081519050919050565b600082825260208201905092915050565b6000819050602082019050919050565b6000612c0b838361295f565b60208301905092915050565b6000602082019050919050565b6000612c2f82612bd3565b612c398185612bde565b9350612c4483612bef565b8060005b83811015612c75578151612c5c8882612bff565b9750612c6783612c17565b925050600181019050612c48565b5085935050505092915050565b60006020820190508181036000830152612c9c8184612c24565b905092915050565b612cad81612955565b82525050565b6000602082019050612cc86000830184612ca4565b92915050565b60008060408385031215612ce557612ce46127d9565b5b6000612cf385828601612b27565b9250506020612d0485828601612b27565b9150509250929050565b600080600060608486031215612d2757612d266127d9565b5b6000612d35868287016128e7565b9350506020612d46868287016128e7565b9250506040612d5786828701612b27565b9150509250925092565b600082825260208201905092915050565b6000612d7d82612a55565b612d878185612d61565b9350612d97818560208601612a71565b612da081612aa4565b840191505092915050565b600061010083016000830151612dc4600086018261295f565b5060208301518482036020860152612ddc8282612d72565b9150506040830151612df1604086018261295f565b506060830151612e04606086018261295f565b506080830151612e17608086018261295f565b5060a083015184820360a0860152612e2f8282612d72565b91505060c083015184820360c0860152612e498282612d72565b91505060e083015184820360e0860152612e638282612d72565b9150508091505092915050565b60006020820190508181036000830152612e8a8184612dab565b905092915050565b600080fd5b600080fd5b7f4e487b7100000000000000000000000000000000000000000000000000000000600052604160045260246000fd5b612ed482612aa4565b810181811067ffffffffffffffff82111715612ef357612ef2612e9c565b5b80604052505050565b6000612f066127cf565b9050612f128282612ecb565b919050565b600067ffffffffffffffff821115612f3257612f31612e9c565b5b612f3b82612aa4565b9050602081019050919050565b82818337600083830152505050565b6000612f6a612f6584612f17565b612efc565b905082815260208101848484011115612f8657612f85612e97565b5b612f91848285612f48565b509392505050565b600082601f830112612fae57612fad612e92565b5b8135612fbe848260208601612f57565b91505092915050565b60008060008060008060c08789031215612fe457612fe36127d9565b5b600087013567ffffffffffffffff811115613002576130016127de565b5b61300e89828a01612f99565b965050602061301f89828a01612b27565b955050604061303089828a01612b27565b945050606087013567ffffffffffffffff811115613051576130506127de565b5b61305d89828a01612f99565b935050608087013567ffffffffffffffff81111561307e5761307d6127de565b5b61308a89828a01612f99565b92505060a087013567ffffffffffffffff8111156130ab576130aa6127de565b5b6130b789828a01612f99565b9150509295509295509295565b600080604083850312156130db576130da6127d9565b5b60006130e985828601612b27565b92505060206130fa858286016128e7565b9150509250929050565b61310d81612868565b811461311857600080fd5b50565b60008135905061312a81613104565b92915050565b60008060408385031215613147576131466127d9565b5b6000613155858286016128e7565b92505060206131668582860161311b565b9150509250929050565b600067ffffffffffffffff82111561318b5761318a612e9c565b5b61319482612aa4565b9050602081019050919050565b60006131b46131af84613170565b612efc565b9050828152602081018484840111156131d0576131cf612e97565b5b6131db848285612f48565b509392505050565b600082601f8301126131f8576131f7612e92565b5b81356132088482602086016131a1565b91505092915050565b6000806000806080858703121561322b5761322a6127d9565b5b6000613239878288016128e7565b945050602061324a878288016128e7565b935050604061325b87828801612b27565b925050606085013567ffffffffffffffff81111561327c5761327b6127de565b5b613288878288016131e3565b91505092959194509250565b60006060820190506132a96000830186612ca4565b6132b66020830185612ca4565b6132c36040830184612ca4565b949350505050565b600080604083850312156132e2576132e16127d9565b5b60006132f0858286016128e7565b9250506020613301858286016128e7565b9150509250929050565b7f4e487b7100000000000000000000000000000000000000000000000000000000600052603260045260246000fd5b7f4e487b7100000000000000000000000000000000000000000000000000000000600052601160045260246000fd5b600061337482612955565b91507fffffffffffffffffffffffffffffffffffffffffffffffffffffffffffffffff8214156133a7576133a661333a565b5b600182019050919050565b7f4e487b7100000000000000000000000000000000000000000000000000000000600052602260045260246000fd5b600060028204905060018216806133f957607f821691505b6020821081141561340d5761340c6133b2565b5b50919050565b7f4552433732313a20617070726f76616c20746f2063757272656e74206f776e6560008201527f7200000000000000000000000000000000000000000000000000000000000000602082015250565b600061346f602183612a60565b915061347a82613413565b604082019050919050565b6000602082019050818103600083015261349e81613462565b9050919050565b7f4552433732313a20617070726f76652063616c6c6572206973206e6f7420746f60008201527f6b656e206f776e6572206f7220617070726f76656420666f7220616c6c000000602082015250565b6000613501603d83612a60565b915061350c826134a5565b604082019050919050565b60006020820190508181036000830152613530816134f4565b9050919050565b600061354282612955565b915061354d83612955565b9250828210156135605761355f61333a565b5b828203905092915050565b7f4552433732313a2063616c6c6572206973206e6f7420746f6b656e206f776e6560008201527f72206f7220617070726f76656400000000000000000000000000000000000000602082015250565b60006135c7602d83612a60565b91506135d28261356b565b604082019050919050565b600060208201905081810360008301526135f6816135ba565b9050919050565b600081905092915050565b50565b60006136186000836135fd565b915061362382613608565b600082019050919050565b60006136398261360b565b9150819050919050565b7f4552433732313a20696e76616c696420746f6b656e2049440000000000000000600082015250565b6000613679601883612a60565b915061368482613643565b602082019050919050565b600060208201905081810360008301526136a88161366c565b9050919050565b7f4552433732313a2061646472657373207a65726f206973206e6f74206120766160008201527f6c6964206f776e65720000000000000000000000000000000000000000000000602082015250565b600061370b602983612a60565b9150613716826136af565b604082019050919050565b6000602082019050818103600083015261373a816136fe565b9050919050565b600081905092915050565b600061375782612a55565b6137618185613741565b9350613771818560208601612a71565b80840191505092915050565b6000613789828561374c565b9150613795828461374c565b91508190509392505050565b7f5469636b6574204944206f7574206f662072616e676500000000000000000000600082015250565b60006137d7601683612a60565b91506137e2826137a1565b602082019050919050565b60006020820190508181036000830152613806816137ca565b9050919050565b7f4552433732313a207472616e736665722066726f6d20696e636f72726563742060008201527f6f776e6572000000000000000000000000000000000000000000000000000000602082015250565b6000613869602583612a60565b91506138748261380d565b604082019050919050565b600060208201905081810360008301526138988161385c565b9050919050565b7f4552433732313a207472616e7366657220746f20746865207a65726f2061646460008201527f7265737300000000000000000000000000000000000000000000000000000000602082015250565b60006138fb602483612a60565b91506139068261389f565b604082019050919050565b6000602082019050818103600083015261392a816138ee565b9050919050565b7f4552433732313a20617070726f766520746f2063616c6c657200000000000000600082015250565b6000613967601983612a60565b915061397282613931565b602082019050919050565b600060208201905081810360008301526139968161395a565b9050919050565b7f4552433732313a207472616e7366657220746f206e6f6e20455243373231526560008201527f63656976657220696d706c656d656e7465720000000000000000000000000000602082015250565b60006139f9603283612a60565b9150613a048261399d565b604082019050919050565b60006020820190508181036000830152613a28816139ec565b9050919050565b7f4e487b7100000000000000000000000000000000000000000000000000000000600052601260045260246000fd5b600081519050919050565b600082825260208201905092915050565b6000613a8582613a5e565b613a8f8185613a69565b9350613a9f818560208601612a71565b613aa881612aa4565b840191505092915050565b6000608082019050613ac86000830187612b69565b613ad56020830186612b69565b613ae26040830185612ca4565b8181036060830152613af48184613a7a565b905095945050505050565b600081519050613b0e8161280f565b92915050565b600060208284031215613b2a57613b296127d9565b5b6000613b3884828501613aff565b91505092915050565b7f4552433732313a206d696e7420746f20746865207a65726f2061646472657373600082015250565b6000613b77602083612a60565b9150613b8282613b41565b602082019050919050565b60006020820190508181036000830152613ba681613b6a565b9050919050565b7f4552433732313a20746f6b656e20616c7265616479206d696e74656400000000600082015250565b6000613be3601c83612a60565b9150613bee82613bad565b602082019050919050565b60006020820190508181036000830152613c1281613bd6565b905091905056fea26469706673582212204a4d38d29e740949f27e855945b06199748841a32883805fa91abbe4a620694464736f6c63430008090033",
  "linkReferences": {},
  "deployedLinkReferences": {}
}